{
  "contractName": "NewDao",
  "abi": [
    {
      "inputs": [
        {
          "internalType": "address",
          "name": "_owner",
          "type": "address"
        },
        {
          "internalType": "string",
          "name": "_name",
          "type": "string"
        }
      ],
      "stateMutability": "nonpayable",
      "type": "constructor"
    },
    {
      "anonymous": false,
      "inputs": [
        {
          "indexed": true,
          "internalType": "address",
          "name": "memberAddress",
          "type": "address"
        },
        {
          "indexed": false,
          "internalType": "uint256",
          "name": "amount",
          "type": "uint256"
        },
        {
          "indexed": false,
          "internalType": "uint256",
          "name": "timestamp",
          "type": "uint256"
        }
      ],
      "name": "ContributionReceived",
      "type": "event"
    },
    {
      "anonymous": false,
      "inputs": [
        {
          "indexed": false,
          "internalType": "address",
          "name": "memberAddress",
          "type": "address"
        },
        {
          "indexed": false,
          "internalType": "uint256",
          "name": "memberIndex",
          "type": "uint256"
        },
        {
          "indexed": false,
          "internalType": "bool",
          "name": "isMember",
          "type": "bool"
        },
        {
          "indexed": false,
          "internalType": "string",
          "name": "memberName",
          "type": "string"
        },
        {
          "indexed": false,
          "internalType": "uint256",
          "name": "memberCount",
          "type": "uint256"
        }
      ],
      "name": "MemberAdded",
      "type": "event"
    },
    {
      "anonymous": false,
      "inputs": [
        {
          "indexed": false,
          "internalType": "address",
          "name": "memberAddress",
          "type": "address"
        },
        {
          "indexed": false,
          "internalType": "bool",
          "name": "isMember",
          "type": "bool"
        },
        {
          "indexed": false,
          "internalType": "uint256",
          "name": "memberCount",
          "type": "uint256"
        }
      ],
      "name": "MemberRemoved",
      "type": "event"
    },
    {
      "anonymous": false,
      "inputs": [
        {
          "indexed": true,
          "internalType": "address",
          "name": "previousOwner",
          "type": "address"
        },
        {
          "indexed": true,
          "internalType": "address",
          "name": "newOwner",
          "type": "address"
        }
      ],
      "name": "OwnershipTransferred",
      "type": "event"
    },
    {
      "anonymous": false,
      "inputs": [
        {
          "indexed": false,
          "internalType": "address",
          "name": "from",
          "type": "address"
        },
        {
          "indexed": false,
          "internalType": "uint256",
          "name": "amount",
          "type": "uint256"
        }
      ],
      "name": "PaymentReceived",
      "type": "event"
    },
    {
      "anonymous": false,
      "inputs": [
        {
          "indexed": false,
          "internalType": "uint256",
          "name": "id",
          "type": "uint256"
        },
        {
          "indexed": false,
          "internalType": "string",
          "name": "result",
          "type": "string"
        },
        {
          "indexed": false,
          "internalType": "string",
          "name": "startDate",
          "type": "string"
        },
        {
          "indexed": false,
          "internalType": "string",
          "name": "endDate",
          "type": "string"
        }
      ],
      "name": "SnapshotResult",
      "type": "event"
    },
    {
      "anonymous": false,
      "inputs": [
        {
          "indexed": false,
          "internalType": "address",
          "name": "from",
          "type": "address"
        },
        {
          "indexed": false,
          "internalType": "uint256",
          "name": "amount",
          "type": "uint256"
        },
        {
          "indexed": false,
          "internalType": "string",
          "name": "message",
          "type": "string"
        }
      ],
      "name": "ThankYou",
      "type": "event"
    },
    {
      "anonymous": false,
      "inputs": [
        {
          "indexed": false,
          "internalType": "address",
          "name": "tokenAddress",
          "type": "address"
        },
        {
          "indexed": false,
          "internalType": "address",
          "name": "creator",
          "type": "address"
        }
      ],
      "name": "TokenCreated",
      "type": "event"
    },
    {
      "anonymous": false,
      "inputs": [
        {
          "indexed": true,
          "internalType": "address",
          "name": "votingContract",
          "type": "address"
        },
        {
          "indexed": true,
          "internalType": "address",
          "name": "creator",
          "type": "address"
        },
        {
          "indexed": true,
          "internalType": "uint256",
          "name": "contractIndex",
          "type": "uint256"
        }
      ],
      "name": "VotingCreated",
      "type": "event"
    },
    {
      "stateMutability": "payable",
      "type": "fallback",
      "payable": true
    },
    {
      "inputs": [],
      "name": "owner",
      "outputs": [
        {
          "internalType": "address",
          "name": "",
          "type": "address"
        }
      ],
      "stateMutability": "view",
      "type": "function",
      "constant": true
    },
    {
      "inputs": [],
      "name": "renounceOwnership",
      "outputs": [],
      "stateMutability": "nonpayable",
      "type": "function"
    },
    {
      "inputs": [
        {
          "internalType": "address",
          "name": "newOwner",
          "type": "address"
        }
      ],
      "name": "transferOwnership",
      "outputs": [],
      "stateMutability": "nonpayable",
      "type": "function"
    },
    {
      "stateMutability": "payable",
      "type": "receive",
      "payable": true
    },
    {
      "inputs": [
        {
          "internalType": "address",
          "name": "member_",
          "type": "address"
        },
        {
          "internalType": "string",
          "name": "_name",
          "type": "string"
        }
      ],
      "name": "addMember",
      "outputs": [],
      "stateMutability": "nonpayable",
      "type": "function"
    },
    {
      "inputs": [
        {
          "internalType": "address",
          "name": "member_",
          "type": "address"
        }
      ],
      "name": "removeMember",
      "outputs": [],
      "stateMutability": "nonpayable",
      "type": "function"
    },
    {
      "inputs": [
        {
          "internalType": "string",
          "name": "_result",
          "type": "string"
        },
        {
          "internalType": "string",
          "name": "_startDate",
          "type": "string"
        },
        {
          "internalType": "string",
          "name": "_endDate",
          "type": "string"
        }
      ],
      "name": "snapshotResult",
      "outputs": [
        {
          "internalType": "string",
          "name": "",
          "type": "string"
        }
      ],
      "stateMutability": "nonpayable",
      "type": "function"
    },
    {
      "inputs": [
        {
          "internalType": "address",
          "name": "member_",
          "type": "address"
        }
      ],
      "name": "isMember",
      "outputs": [
        {
          "internalType": "bool",
          "name": "",
          "type": "bool"
        }
      ],
      "stateMutability": "view",
      "type": "function",
      "constant": true
    },
    {
      "inputs": [
        {
          "internalType": "uint64",
          "name": "index",
          "type": "uint64"
        }
      ],
      "name": "getMemberByIndex",
      "outputs": [
        {
          "components": [
            {
              "internalType": "address",
              "name": "memberAddress",
              "type": "address"
            },
            {
              "internalType": "uint256",
              "name": "memberIndex",
              "type": "uint256"
            },
            {
              "internalType": "bool",
              "name": "isMember",
              "type": "bool"
            },
            {
              "internalType": "string",
              "name": "memberName",
              "type": "string"
            }
          ],
          "internalType": "struct NewDao.Member",
          "name": "",
          "type": "tuple"
        }
      ],
      "stateMutability": "view",
      "type": "function",
      "constant": true
    },
    {
      "inputs": [],
      "name": "getMemberCount",
      "outputs": [
        {
          "internalType": "uint256",
          "name": "",
          "type": "uint256"
        }
      ],
      "stateMutability": "view",
      "type": "function",
      "constant": true
    },
    {
      "inputs": [],
      "name": "getDaoName",
      "outputs": [
        {
          "internalType": "string",
          "name": "",
          "type": "string"
        }
      ],
      "stateMutability": "view",
      "type": "function",
      "constant": true
    },
    {
      "inputs": [
        {
          "internalType": "string",
          "name": "_name",
          "type": "string"
        },
        {
          "internalType": "string",
          "name": "_symbol",
          "type": "string"
        }
      ],
      "name": "createToken",
      "outputs": [],
      "stateMutability": "nonpayable",
      "type": "function"
    },
    {
      "inputs": [
        {
          "internalType": "address",
          "name": "_user",
          "type": "address"
        }
      ],
      "name": "getTokenContract",
      "outputs": [
        {
          "internalType": "address",
          "name": "",
          "type": "address"
        }
      ],
      "stateMutability": "view",
      "type": "function",
      "constant": true
    },
    {
      "inputs": [],
      "name": "createVoting",
      "outputs": [],
      "stateMutability": "nonpayable",
      "type": "function"
    },
    {
      "inputs": [
        {
          "internalType": "uint256",
          "name": "index",
          "type": "uint256"
        }
      ],
      "name": "getVotingContractByIndex",
      "outputs": [
        {
          "internalType": "address",
          "name": "",
          "type": "address"
        }
      ],
      "stateMutability": "view",
      "type": "function",
      "constant": true
    },
    {
      "inputs": [],
      "name": "getVotingContractCount",
      "outputs": [
        {
          "internalType": "uint256",
          "name": "",
          "type": "uint256"
        }
      ],
      "stateMutability": "view",
      "type": "function",
      "constant": true
    },
    {
      "inputs": [],
      "name": "makeContribution",
      "outputs": [],
      "stateMutability": "payable",
      "type": "function",
      "payable": true
    }
  ],
  "bytecode": "0x60806040523480156200001157600080fd5b5060405162005657380380620056578339810160408190526200003491620001a8565b6200003f3362000061565b6200004a82620000b1565b60026200005882826200032d565b505050620003f9565b600080546001600160a01b038381166001600160a01b0319831681178455604051919092169283917f8be0079c531659141344cd1fd0a4f28419497f9722a3daafe3b4186f6b6457e09190a35050565b620000bb62000134565b6001600160a01b038116620001265760405162461bcd60e51b815260206004820152602660248201527f4f776e61626c653a206e6577206f776e657220697320746865207a65726f206160448201526564647265737360d01b60648201526084015b60405180910390fd5b620001318162000061565b50565b6000546001600160a01b03163314620001905760405162461bcd60e51b815260206004820181905260248201527f4f776e61626c653a2063616c6c6572206973206e6f7420746865206f776e657260448201526064016200011d565b565b634e487b7160e01b600052604160045260246000fd5b60008060408385031215620001bc57600080fd5b82516001600160a01b0381168114620001d457600080fd5b602084810151919350906001600160401b0380821115620001f457600080fd5b818601915086601f8301126200020957600080fd5b8151818111156200021e576200021e62000192565b604051601f8201601f19908116603f0116810190838211818310171562000249576200024962000192565b8160405282815289868487010111156200026257600080fd5b600093505b8284101562000286578484018601518185018701529285019262000267565b60008684830101528096505050505050509250929050565b600181811c90821680620002b357607f821691505b602082108103620002d457634e487b7160e01b600052602260045260246000fd5b50919050565b601f8211156200032857600081815260208120601f850160051c81016020861015620003035750805b601f850160051c820191505b8181101562000324578281556001016200030f565b5050505b505050565b81516001600160401b0381111562000349576200034962000192565b62000361816200035a84546200029e565b84620002da565b602080601f831160018114620003995760008415620003805750858301515b600019600386901b1c1916600185901b17855562000324565b600085815260208120601f198616915b82811015620003ca57888601518255948401946001909101908401620003a9565b5085821015620003e95787850151600019600388901b60f8161c191681555b5050505050600190811b01905550565b61524e80620004096000396000f3fe608060405260043610620000eb5760003560e01c8063a230c5241162000085578063a230c52414620002bb578063c127c24714620002f1578063c2cc68d91462000316578063cfb8e7ac146200033b578063d4a4fc4c1462000360578063dd3cfc8c1462000378578063f2fde38b14620003ac578063fdff950914620003d15762000167565b80630b1ca49a146200019d578063189e574514620001c45780632f2f2d5614620002015780633867056314620002265780633c5663df1462000230578063715018a614620002485780638da5cb5b1462000260578063997072f714620002945762000167565b366200016757604080513381523460208201527f6ef95f06320e7a25a04a175ca677b7052bdd97131872c2192525a629f51be77091015b60405180910390a17fbe5ef941fd0fee416dff9fd8e1d7c19c10c8fc97d988cce6740db80906ff6f6933346040516200015d929190620014c0565b60405180910390a1005b604080513381523460208201527f6ef95f06320e7a25a04a175ca677b7052bdd97131872c2192525a629f51be770910162000122565b348015620001aa57600080fd5b50620001c2620001bc36600462001526565b620003e9565b005b348015620001d157600080fd5b50620001e9620001e3366004620015f5565b620006c7565b604051620001f89190620016ce565b60405180910390f35b3480156200020e57600080fd5b50620001c262000220366004620016e3565b620007b1565b620001c262000960565b3480156200023d57600080fd5b50620001c262000b36565b3480156200025557600080fd5b50620001c262000cdd565b3480156200026d57600080fd5b506000546001600160a01b03165b6040516001600160a01b039091168152602001620001f8565b348015620002a157600080fd5b50620002ac62000cf5565b604051908152602001620001f8565b348015620002c857600080fd5b50620002e0620002da36600462001526565b62000d11565b6040519015158152602001620001f8565b348015620002fe57600080fd5b50620001c2620003103660046200174d565b62000d43565b3480156200032357600080fd5b506200027b6200033536600462001526565b62000fac565b3480156200034857600080fd5b506200027b6200035a366004620017d6565b62001074565b3480156200036d57600080fd5b50620001e9620010e9565b3480156200038557600080fd5b506200039d62000397366004620017f0565b6200118d565b604051620001f891906200181b565b348015620003b957600080fd5b50620001c2620003cb36600462001526565b620012fc565b348015620003de57600080fd5b50620002ac6200137b565b620003f36200139e565b6001600160a01b03811660009081526003602052604090206002015460ff166200045c5760405162461bcd60e51b815260206004820152601560248201527413595b58995c88191bd95cc81b9bdd08195e1a5cdd605a1b60448201526064015b60405180910390fd5b6001600160a01b038116600090815260036020526040812060019081015481549092916004916200049791906001600160801b03166200187e565b6001600160801b031681548110620004b357620004b3620018a8565b906000526020600020906004020190508060048381548110620004da57620004da620018a8565b60009182526020909120825460049092020180546001600160a01b0319166001600160a01b0390921691909117815560018083015490820155600280830154908201805460ff909216151560ff19909216919091179055600380820190620005459084018262001962565b505081546001600160a01b031660009081526003602052604090206001018390555060048054806200057b576200057b62001a4e565b60008281526020812060046000199093019283020180546001600160a01b03191681556001810182905560028101805460ff1916905590620005c160038301826200144a565b505090556001600160a01b0383166000908152600360208190526040822080546001600160a01b03191681556001810183905560028101805460ff19169055919062000610908301826200144a565b50506001600160a01b0383166000908152600360205260408120600201805460ff19169055600180546001600160801b0316916200064e8362001a64565b82546101009290920a6001600160801b03818102199093169183160217909155600154604080516001600160a01b03881681526000602082015291909216918101919091527f6ce3e23cd8e4cf92010f1c1a41e89a9998cb177e28f15bb2e17275defd7ee4b291506060015b60405180910390a1505050565b6060620006d36200139e565b60018054600160801b90046001600160801b03169081906010620006f78362001a8a565b82546001600160801b039182166101009390930a9283029190920219909116179055506000818152600560205260409020818155600181016200073b878262001abb565b50600281016200074c868262001abb565b50600381016200075d858262001abb565b5080546040517fef843cd86053fcf9c1cda05b8c25e863f31253267f1f73f86f6d0354b6aa2651916200079f9160018501906002860190600387019062001c01565b60405180910390a15093949350505050565b620007bb6200139e565b336000908152600660205260409020546001600160a01b031615620008235760405162461bcd60e51b815260206004820152601e60248201527f546f6b656e20636f6e747261637420616c726561647920637265617465640000604482015260640162000453565b60015460036001600160801b0390911610156200088d5760405162461bcd60e51b815260206004820152602160248201527f53434943206d757374206174206c6561737420686176652033206d656d6265726044820152607360f81b606482015260840162000453565b600080546001600160a01b03168383604051620008aa9062001489565b620008b89392919062001c51565b604051809103906000f080158015620008d5573d6000803e3d6000fd5b5033600081815260066020908152604080832080546001600160a01b0387166001600160a01b0319918216811790925560088452828520805460018101825590865294849020909401805490941681179093558051928352908201929092529192507fd5f9bdf12adf29dab0248c349842c3822d53ae2bb4f36352f301630d018c81399101620006ba565b3360009081526003602052604090206002015460ff16620009c45760405162461bcd60e51b815260206004820152601b60248201527f53656e646572206d75737420626520612044414f206d656d6265720000000000604482015260640162000453565b6000341162000a295760405162461bcd60e51b815260206004820152602a60248201527f436f6e747269627574696f6e20616d6f756e74206d75737420626520677265616044820152690746572207468616e20360b41b606482015260840162000453565b62000a57604051806060016040528060006001600160a01b0316815260200160008152602001600081525090565b33808252346020808401828152426040808701828152600087815260078652828120805460018082018355918352918790208a5160039093020180546001600160a01b0319166001600160a01b03909316929092178255945194810194909455516002909301929092558151938452918301919091527fd2dff949d20e874cc6ba1dcefb840fb8cf6000a4197bfb69accfea5a32443ff5910160405180910390a27fbe5ef941fd0fee416dff9fd8e1d7c19c10c8fc97d988cce6740db80906ff6f69333460405162000b2b929190620014c0565b60405180910390a150565b62000b406200139e565b33600090815260066020526040902080546001600160a01b031662000ba85760405162461bcd60e51b815260206004820152601d60248201527f546f6b656e20636f6e747261637420646f6573206e6f74206578697374000000604482015260640162000453565b60015460036001600160801b03909116101562000c125760405162461bcd60e51b815260206004820152602160248201527f53434943206d7573742068617665206174206c656173742033206d656d6265726044820152607360f81b606482015260840162000453565b80546001600160a01b0316600062000c326000546001600160a01b031690565b8260405162000c419062001497565b6001600160a01b03928316815291166020820152604001604051809103906000f08015801562000c75573d6000803e3d6000fd5b5060018481018054918201815560008181526020812090920180546001600160a01b0319166001600160a01b03851690811790915590546040519394509233927f29a650c7bc54146825eadc757435fc70c37c36bac1c70af8301ee8b6901f0f1891a4505050565b62000ce76200139e565b62000cf36000620013fa565b565b600062000d016200139e565b506001546001600160801b031690565b600062000d1d6200139e565b506001600160a01b03811660009081526003602052604090206002015460ff165b919050565b62000d4d6200139e565b6001600160a01b03831660009081526003602052604090206002015460ff161562000db35760405162461bcd60e51b81526020600482015260156024820152744d656d62657220616c72656164792065786973747360581b604482015260640162000453565b6001600160a01b038316600081815260036020819052604090912080546001600160a01b031916909217825560045460018084019190915560028301805460ff191690911790550162000e0882848362001c95565b506001600160a01b0380841660009081526003602081905260408220600480546001818101835594829052825491027f8a35acfbc15ff81a39ae7d344fd709f28e8600b4aa8c65c6b64bfe7fe36bd19b810180546001600160a01b03191692909616919091178555928101547f8a35acfbc15ff81a39ae7d344fd709f28e8600b4aa8c65c6b64bfe7fe36bd19c84015560028101547f8a35acfbc15ff81a39ae7d344fd709f28e8600b4aa8c65c6b64bfe7fe36bd19d8401805460ff909216151560ff1990921691909117905592917f8a35acfbc15ff81a39ae7d344fd709f28e8600b4aa8c65c6b64bfe7fe36bd19e019062000f089084018262001962565b5050600180546001600160801b03169150600062000f268362001a8a565b82546101009290920a6001600160801b038181021990931691831602179091556004546001600160a01b038616600090815260036020526040908190206002015460015491517fe2c4042adc0ced0a4fa0850f318c17e82471b6abfcff820513cde8b151f7a3009550620006ba9489949360ff9093169289928992919091169062001d5d565b600062000fb86200139e565b6001600160a01b0382166000908152600860205260409020546200102d5760405162461bcd60e51b815260206004820152602560248201527f4e6f20746f6b656e20636f6e747261637420666f756e6420666f722074686973604482015264103ab9b2b960d91b606482015260840162000453565b6001600160a01b03821660009081526008602052604081208054909190620010595762001059620018a8565b6000918252602090912001546001600160a01b031692915050565b6000620010806200139e565b33600090815260066020526040902060018101548310620010b55760405162461bcd60e51b8152600401620004539062001dc1565b806001018381548110620010cd57620010cd620018a8565b6000918252602090912001546001600160a01b03169392505050565b6060620010f56200139e565b600280546200110490620018be565b80601f01602080910402602001604051908101604052809291908181526020018280546200113290620018be565b8015620011835780601f10620011575761010080835404028352916020019162001183565b820191906000526020600020905b8154815290600101906020018083116200116557829003601f168201915b5050505050905090565b6040805160808101825260008082526020820181905291810191909152606080820152620011ba6200139e565b6001546001600160801b03166001600160401b03831610620011f05760405162461bcd60e51b8152600401620004539062001dc1565b6004826001600160401b0316815481106200120f576200120f620018a8565b600091825260209182902060408051608081018252600490930290910180546001600160a01b03168352600181015493830193909352600283015460ff161515908201526003820180549192916060840191906200126d90620018be565b80601f01602080910402602001604051908101604052809291908181526020018280546200129b90620018be565b8015620012ec5780601f10620012c057610100808354040283529160200191620012ec565b820191906000526020600020905b815481529060010190602001808311620012ce57829003601f168201915b5050505050815250509050919050565b620013066200139e565b6001600160a01b0381166200136d5760405162461bcd60e51b815260206004820152602660248201527f4f776e61626c653a206e6577206f776e657220697320746865207a65726f206160448201526564647265737360d01b606482015260840162000453565b6200137881620013fa565b50565b6000620013876200139e565b503360009081526006602052604090206001015490565b6000546001600160a01b0316331462000cf35760405162461bcd60e51b815260206004820181905260248201527f4f776e61626c653a2063616c6c6572206973206e6f7420746865206f776e6572604482015260640162000453565b600080546001600160a01b038381166001600160a01b0319831681178455604051919092169283917f8be0079c531659141344cd1fd0a4f28419497f9722a3daafe3b4186f6b6457e09190a35050565b5080546200145890620018be565b6000825580601f1062001469575050565b601f016020900490600052602060002090810190620013789190620014a5565b6118da8062001def83390190565b611b5080620036c983390190565b5b80821115620014bc5760008155600101620014a6565b5090565b6001600160a01b039290921682526020820152606060408201819052601a908201527f5468616e6b20796f7520666f7220796f7572207061796d656e74000000000000608082015260a00190565b80356001600160a01b038116811462000d3e57600080fd5b6000602082840312156200153957600080fd5b62001544826200150e565b9392505050565b634e487b7160e01b600052604160045260246000fd5b600082601f8301126200157357600080fd5b81356001600160401b03808211156200159057620015906200154b565b604051601f8301601f19908116603f01168101908282118183101715620015bb57620015bb6200154b565b81604052838152866020858801011115620015d557600080fd5b836020870160208301376000602085830101528094505050505092915050565b6000806000606084860312156200160b57600080fd5b83356001600160401b03808211156200162357600080fd5b620016318783880162001561565b945060208601359150808211156200164857600080fd5b620016568783880162001561565b935060408601359150808211156200166d57600080fd5b506200167c8682870162001561565b9150509250925092565b6000815180845260005b81811015620016ae5760208185018101518683018201520162001690565b506000602082860101526020601f19601f83011685010191505092915050565b60208152600062001544602083018462001686565b60008060408385031215620016f757600080fd5b82356001600160401b03808211156200170f57600080fd5b6200171d8683870162001561565b935060208501359150808211156200173457600080fd5b50620017438582860162001561565b9150509250929050565b6000806000604084860312156200176357600080fd5b6200176e846200150e565b925060208401356001600160401b03808211156200178b57600080fd5b818601915086601f830112620017a057600080fd5b813581811115620017b057600080fd5b876020828501011115620017c357600080fd5b6020830194508093505050509250925092565b600060208284031215620017e957600080fd5b5035919050565b6000602082840312156200180357600080fd5b81356001600160401b03811681146200154457600080fd5b6020815260018060a01b03825116602082015260208201516040820152604082015115156060820152600060608301516080808401526200186060a084018262001686565b949350505050565b634e487b7160e01b600052601160045260246000fd5b6001600160801b03828116828216039080821115620018a157620018a162001868565b5092915050565b634e487b7160e01b600052603260045260246000fd5b600181811c90821680620018d357607f821691505b602082108103620018f457634e487b7160e01b600052602260045260246000fd5b50919050565b601f8211156200194857600081815260208120601f850160051c81016020861015620019235750805b601f850160051c820191505b8181101562001944578281556001016200192f565b5050505b505050565b600019600383901b1c191660019190911b1790565b8181036200196e575050565b6200197a8254620018be565b6001600160401b038111156200199457620019946200154b565b620019ac81620019a58454620018be565b84620018fa565b6000601f821160018114620019df5760008315620019ca5750848201545b620019d684826200194d565b85555062001a47565b600085815260209020601f19841690600086815260209020845b8381101562001a1b5782860154825560019586019590910190602001620019f9565b508583101562001a3a5781850154600019600388901b60f8161c191681555b50505060018360011b0184555b5050505050565b634e487b7160e01b600052603160045260246000fd5b60006001600160801b0382168062001a805762001a8062001868565b6000190192915050565b60006001600160801b038281166002600160801b0319810162001ab15762001ab162001868565b6001019392505050565b81516001600160401b0381111562001ad75762001ad76200154b565b62001ae881620019a58454620018be565b602080601f83116001811462001b1c576000841562001b075750858301515b62001b1385826200194d565b86555062001944565b600085815260208120601f198616915b8281101562001b4d5788860151825594840194600190910190840162001b2c565b508582101562001b6c5787850151600019600388901b60f8161c191681555b5050505050600190811b01905550565b6000815462001b8b81620018be565b80855260206001838116801562001bab576001811462001bc65762001bf6565b60ff1985168884015283151560051b88018301955062001bf6565b866000528260002060005b8581101562001bee5781548a820186015290830190840162001bd1565b890184019650505b505050505092915050565b84815260806020820152600062001c1c608083018662001b7c565b828103604084015262001c30818662001b7c565b9050828103606084015262001c46818562001b7c565b979650505050505050565b6001600160a01b038416815260606020820181905260009062001c779083018562001686565b828103604084015262001c8b818562001686565b9695505050505050565b6001600160401b0383111562001caf5762001caf6200154b565b62001cc78362001cc08354620018be565b83620018fa565b6000601f84116001811462001cfa576000851562001ce55750838201355b62001cf186826200194d565b84555062001a47565b600083815260209020601f19861690835b8281101562001d2d578685013582556020948501946001909201910162001d0b565b508682101562001d4b5760001960f88860031b161c19848701351681555b505060018560011b0183555050505050565b6001600160a01b038716815260208101869052841515604082015260a0606082018190528101839052828460c0830137600081840160c0908101919091526001600160801b03929092166080820152601f909201601f191690910101949350505050565b602080825260139082015272496e646578206f7574206f6620626f756e647360681b60408201526060019056fe60806040523480156200001157600080fd5b50604051620018da380380620018da83398101604081905262000034916200028f565b8181620000413362000099565b60016200004f8382620003a8565b5060026200005e8282620003a8565b5050506200007283620000e960201b60201c565b6008620000808382620003a8565b5060096200008f8282620003a8565b5050505062000474565b600080546001600160a01b038381166001600160a01b0319831681178455604051919092169283917f8be0079c531659141344cd1fd0a4f28419497f9722a3daafe3b4186f6b6457e09190a35050565b620000f36200016c565b6001600160a01b0381166200015e5760405162461bcd60e51b815260206004820152602660248201527f4f776e61626c653a206e6577206f776e657220697320746865207a65726f206160448201526564647265737360d01b60648201526084015b60405180910390fd5b620001698162000099565b50565b6000546001600160a01b03163314620001c85760405162461bcd60e51b815260206004820181905260248201527f4f776e61626c653a2063616c6c6572206973206e6f7420746865206f776e6572604482015260640162000155565b565b634e487b7160e01b600052604160045260246000fd5b600082601f830112620001f257600080fd5b81516001600160401b03808211156200020f576200020f620001ca565b604051601f8301601f19908116603f011681019082821181831017156200023a576200023a620001ca565b816040528381526020925086838588010111156200025757600080fd5b600091505b838210156200027b57858201830151818301840152908201906200025c565b600093810190920192909252949350505050565b600080600060608486031215620002a557600080fd5b83516001600160a01b0381168114620002bd57600080fd5b60208501519093506001600160401b0380821115620002db57600080fd5b620002e987838801620001e0565b935060408601519150808211156200030057600080fd5b506200030f86828701620001e0565b9150509250925092565b600181811c908216806200032e57607f821691505b6020821081036200034f57634e487b7160e01b600052602260045260246000fd5b50919050565b601f821115620003a357600081815260208120601f850160051c810160208610156200037e5750805b601f850160051c820191505b818110156200039f578281556001016200038a565b5050505b505050565b81516001600160401b03811115620003c457620003c4620001ca565b620003dc81620003d5845462000319565b8462000355565b602080601f831160018114620004145760008415620003fb5750858301515b600019600386901b1c1916600185901b1785556200039f565b600085815260208120601f198616915b82811015620004455788860151825594840194600190910190840162000424565b5085821015620004645787850151600019600388901b60f8161c191681555b5050505050600190811b01905550565b61145680620004846000396000f3fe608060405234801561001057600080fd5b506004361061012c5760003560e01c80636352211e116100ad578063a22cb46511610071578063a22cb46514610262578063b88d4fde14610270578063c87b56dd1461027e578063e985e9c514610291578063f2fde38b146102a457600080fd5b80636352211e1461021b57806370a082311461022e578063715018a6146102415780638da5cb5b1461024957806395d89b411461025a57600080fd5b806340d097c3116100f457806340d097c3146101c157806342842e0e146101ae57806342966c68146101e2578063541f2436146101f55780635f088a631461020857600080fd5b806301ffc9a71461013157806306fdde0314610159578063081812fc1461016e578063095ea7b31461019957806323b872dd146101ae575b600080fd5b61014461013f366004611010565b6102b7565b60405190151581526020015b60405180910390f35b610161610309565b604051610150919061107d565b61018161017c366004611090565b6103a3565b6040516001600160a01b039091168152602001610150565b6101ac6101a73660046110c0565b6103ca565b005b6101ac6101bc3660046110ea565b6104e4565b6101d46101cf366004611126565b610540565b604051908152602001610150565b6101ac6101f0366004611090565b6105de565b6101d4610203366004611126565b6106ae565b6101ac6102163660046110c0565b6106d7565b610181610229366004611090565b6107e1565b6101d461023c366004611126565b610816565b6101ac61089c565b6000546001600160a01b0316610181565b6101616108b0565b6101ac6101bc366004611141565b6101ac6101bc366004611193565b61016161028c366004611090565b6108c7565b61014461029f36600461126f565b61093b565b6101ac6102b2366004611126565b610969565b60006001600160e01b031982166380ac58cd60e01b14806102e857506001600160e01b03198216635b5e139f60e01b145b8061030357506301ffc9a760e01b6001600160e01b03198316145b92915050565b60606103136109e2565b60088054610320906112a2565b80601f016020809104026020016040519081016040528092919081815260200182805461034c906112a2565b80156103995780601f1061036e57610100808354040283529160200191610399565b820191906000526020600020905b81548152906001019060200180831161037c57829003601f168201915b5050505050905090565b60006103ae82610a3c565b506000908152600560205260409020546001600160a01b031690565b60006103d5826107e1565b9050806001600160a01b0316836001600160a01b0316036104475760405162461bcd60e51b815260206004820152602160248201527f4552433732313a20617070726f76616c20746f2063757272656e74206f776e656044820152603960f91b60648201526084015b60405180910390fd5b336001600160a01b03821614806104635750610463813361093b565b6104d55760405162461bcd60e51b815260206004820152603d60248201527f4552433732313a20617070726f76652063616c6c6572206973206e6f7420746f60448201527f6b656e206f776e6572206f7220617070726f76656420666f7220616c6c000000606482015260840161043e565b6104df8383610a61565b505050565b60405162461bcd60e51b815260206004820152602b60248201527f5472616e736665727320617265206e6f7420616c6c6f77656420696e2074686960448201526a399031b7b73a3930b1ba1760a91b606482015260840161043e565b600061054a6109e2565b610558600780546001019055565b600061056360075490565b905061056f8382610acf565b6001600160a01b0383166000818152600a602090815260409182902080546001600160a01b03191684178155600101849055815192835282018390527ff2b290a76feb54be358b555507421d765609171aefa0646f109a653228ff81b8910160405180910390a190505b919050565b6105e66109e2565b6105f03382610aed565b6106525760405162461bcd60e51b815260206004820152602d60248201527f4552433732313a2063616c6c6572206973206e6f7420746f6b656e206f776e6560448201526c1c881bdc88185c1c1c9bdd9959609a1b606482015260840161043e565b600061065d826107e1565b905061066882610b4c565b604080516001600160a01b0383168152602081018490527f4124e08f3a7db6516639a90c8ef7f6f730d82e3c5c76c50a644b1e84cddaa89a910160405180910390a15050565b60006106b86109e2565b506001600160a01b03166000908152600a602052604090206001015490565b60006106e233610816565b1161072f5760405162461bcd60e51b815260206004820152601c60248201527f596f7520646f6e2774206861766520746f6b656e20746f206275726e00000000604482015260640161043e565b33610739826107e1565b6001600160a01b03161461079b5760405162461bcd60e51b8152602060048201526024808201527f43616c6c6572206973206e6f7420746865206f776e6572206f6620746865207460448201526337b5b2b760e11b606482015260840161043e565b6107a582826103ca565b60405181906001600160a01b0384169033907f83d382e09cf0ae41b7699ab44b94782318df9bbfdf538a1e9efdc124ce4a55e390600090a45050565b6000818152600360205260408120546001600160a01b0316806103035760405162461bcd60e51b815260040161043e906112dc565b60006001600160a01b0382166108805760405162461bcd60e51b815260206004820152602960248201527f4552433732313a2061646472657373207a65726f206973206e6f7420612076616044820152683634b21037bbb732b960b91b606482015260840161043e565b506001600160a01b031660009081526004602052604090205490565b6108a46109e2565b6108ae6000610be1565b565b60606108ba6109e2565b60098054610320906112a2565b60606108d282610a3c565b60006108e960408051602081019091526000815290565b905060008151116109095760405180602001604052806000815250610934565b8061091384610c31565b60405160200161092492919061130e565b6040516020818303038152906040525b9392505050565b6001600160a01b03918216600090815260066020908152604080832093909416825291909152205460ff1690565b6109716109e2565b6001600160a01b0381166109d65760405162461bcd60e51b815260206004820152602660248201527f4f776e61626c653a206e6577206f776e657220697320746865207a65726f206160448201526564647265737360d01b606482015260840161043e565b6109df81610be1565b50565b6000546001600160a01b031633146108ae5760405162461bcd60e51b815260206004820181905260248201527f4f776e61626c653a2063616c6c6572206973206e6f7420746865206f776e6572604482015260640161043e565b610a4581610cc4565b6109df5760405162461bcd60e51b815260040161043e906112dc565b600081815260056020526040902080546001600160a01b0319166001600160a01b0384169081179091558190610a96826107e1565b6001600160a01b03167f8c5be1e5ebec7d5bd14f71427d1e84f3dd0314c0f7b2291e5b200ac8c7c3b92560405160405180910390a45050565b610ae9828260405180602001604052806000815250610ce1565b5050565b600080610af9836107e1565b9050806001600160a01b0316846001600160a01b03161480610b205750610b20818561093b565b80610b445750836001600160a01b0316610b39846103a3565b6001600160a01b0316145b949350505050565b6000610b57826107e1565b9050610b62826107e1565b600083815260056020908152604080832080546001600160a01b03199081169091556001600160a01b0385168085526004845282852080546000190190558785526003909352818420805490911690555192935084927fddf252ad1be2c89b69c2b068fc378daa952ba7f163c4a11628f55a4df523b3ef908390a45050565b600080546001600160a01b038381166001600160a01b0319831681178455604051919092169283917f8be0079c531659141344cd1fd0a4f28419497f9722a3daafe3b4186f6b6457e09190a35050565b60606000610c3e83610d14565b600101905060008167ffffffffffffffff811115610c5e57610c5e61117d565b6040519080825280601f01601f191660200182016040528015610c88576020820181803683370190505b5090508181016020015b600019016f181899199a1a9b1b9c1cb0b131b232b360811b600a86061a8153600a8504945084610c9257509392505050565b6000908152600360205260409020546001600160a01b0316151590565b610ceb8383610dec565b610cf86000848484610ef9565b6104df5760405162461bcd60e51b815260040161043e9061133d565b60008072184f03e93ff9f4daa797ed6e38ed64bf6a1f0160401b8310610d535772184f03e93ff9f4daa797ed6e38ed64bf6a1f0160401b830492506040015b6d04ee2d6d415b85acef81000000008310610d7f576d04ee2d6d415b85acef8100000000830492506020015b662386f26fc100008310610d9d57662386f26fc10000830492506010015b6305f5e1008310610db5576305f5e100830492506008015b6127108310610dc957612710830492506004015b60648310610ddb576064830492506002015b600a83106103035760010192915050565b6001600160a01b038216610e425760405162461bcd60e51b815260206004820181905260248201527f4552433732313a206d696e7420746f20746865207a65726f2061646472657373604482015260640161043e565b610e4b81610cc4565b15610e685760405162461bcd60e51b815260040161043e9061138f565b610e7181610cc4565b15610e8e5760405162461bcd60e51b815260040161043e9061138f565b6001600160a01b038216600081815260046020908152604080832080546001019055848352600390915280822080546001600160a01b0319168417905551839291907fddf252ad1be2c89b69c2b068fc378daa952ba7f163c4a11628f55a4df523b3ef908290a45050565b60006001600160a01b0384163b15610fef57604051630a85bd0160e11b81526001600160a01b0385169063150b7a0290610f3d9033908990889088906004016113c6565b6020604051808303816000875af1925050508015610f78575060408051601f3d908101601f19168201909252610f7591810190611403565b60015b610fd5573d808015610fa6576040519150601f19603f3d011682016040523d82523d6000602084013e610fab565b606091505b508051600003610fcd5760405162461bcd60e51b815260040161043e9061133d565b805181602001fd5b6001600160e01b031916630a85bd0160e11b149050610b44565b506001949350505050565b6001600160e01b0319811681146109df57600080fd5b60006020828403121561102257600080fd5b813561093481610ffa565b60005b83811015611048578181015183820152602001611030565b50506000910152565b6000815180845261106981602086016020860161102d565b601f01601f19169290920160200192915050565b6020815260006109346020830184611051565b6000602082840312156110a257600080fd5b5035919050565b80356001600160a01b03811681146105d957600080fd5b600080604083850312156110d357600080fd5b6110dc836110a9565b946020939093013593505050565b6000806000606084860312156110ff57600080fd5b611108846110a9565b9250611116602085016110a9565b9150604084013590509250925092565b60006020828403121561113857600080fd5b610934826110a9565b6000806040838503121561115457600080fd5b61115d836110a9565b91506020830135801515811461117257600080fd5b809150509250929050565b634e487b7160e01b600052604160045260246000fd5b600080600080608085870312156111a957600080fd5b6111b2856110a9565b93506111c0602086016110a9565b925060408501359150606085013567ffffffffffffffff808211156111e457600080fd5b818701915087601f8301126111f857600080fd5b81358181111561120a5761120a61117d565b604051601f8201601f19908116603f011681019083821181831017156112325761123261117d565b816040528281528a602084870101111561124b57600080fd5b82602086016020830137600060208483010152809550505050505092959194509250565b6000806040838503121561128257600080fd5b61128b836110a9565b9150611299602084016110a9565b90509250929050565b600181811c908216806112b657607f821691505b6020821081036112d657634e487b7160e01b600052602260045260246000fd5b50919050565b602080825260189082015277115490cdcc8c4e881a5b9d985b1a59081d1bdad95b88125160421b604082015260600190565b6000835161132081846020880161102d565b83519083019061133481836020880161102d565b01949350505050565b60208082526032908201527f4552433732313a207472616e7366657220746f206e6f6e20455243373231526560408201527131b2b4bb32b91034b6b83632b6b2b73a32b960711b606082015260800190565b6020808252601c908201527f4552433732313a20746f6b656e20616c7265616479206d696e74656400000000604082015260600190565b6001600160a01b03858116825284166020820152604081018390526080606082018190526000906113f990830184611051565b9695505050505050565b60006020828403121561141557600080fd5b815161093481610ffa56fea264697066735822122027b99dc918b1e99591a808e98d75353613ab5c00821c4f6065121b2224e6687764736f6c6343000812003360806040523480156200001157600080fd5b5060405162001b5038038062001b508339810160408190526200003491620001c5565b6200003f3362000077565b6200004a82620000c7565b600380546001600160a01b0390921661010002610100600160a81b031990921691909117905550620001fd565b600080546001600160a01b038381166001600160a01b0319831681178455604051919092169283917f8be0079c531659141344cd1fd0a4f28419497f9722a3daafe3b4186f6b6457e09190a35050565b620000d16200014a565b6001600160a01b0381166200013c5760405162461bcd60e51b815260206004820152602660248201527f4f776e61626c653a206e6577206f776e657220697320746865207a65726f206160448201526564647265737360d01b60648201526084015b60405180910390fd5b620001478162000077565b50565b6000546001600160a01b03163314620001a65760405162461bcd60e51b815260206004820181905260248201527f4f776e61626c653a2063616c6c6572206973206e6f7420746865206f776e6572604482015260640162000133565b565b80516001600160a01b0381168114620001c057600080fd5b919050565b60008060408385031215620001d957600080fd5b620001e483620001a8565b9150620001f460208401620001a8565b90509250929050565b611943806200020d6000396000f3fe608060405234801561001057600080fd5b50600436106101425760003560e01c8063a4de1ec0116100b8578063c63840711161007c578063c6384071146102b0578063d4f50f98146102e8578063de2927891461031a578063ee74c67814610322578063f2fde38b1461032a578063f75d64a61461033d57600080fd5b8063a4de1ec01461026e578063a75de45214610281578063a7bfab1614610289578063bdd4d18d14610291578063c110970f146102a857600080fd5b8063715018a61161010a578063715018a6146101c957806385c2d29b146101d15780638da5cb5b146101e9578063912c9617146101fe578063a1edffa214610211578063a3ec138d1461022b57600080fd5b8063054fd2c2146101475780631703a018146101715780632259e3c3146101885780633089754b1461019d5780635f5300ff146101b2575b600080fd5b6001546101579063ffffffff1681565b60405163ffffffff90911681526020015b60405180910390f35b60005461015790600160e01b900463ffffffff1681565b61019b610196366004611338565b610345565b005b6101a561060b565b6040516101689190611361565b60005461015790600160a01b900463ffffffff1681565b61019b610756565b6101d961076a565b6040519015158152602001610168565b6101f161098e565b60405161016891906113af565b61019b61020c3660046113d7565b61099d565b60065461021e9060ff1681565b6040516101689190611452565b610257610239366004611466565b60046020526000908152604090205460ff8082169161010090041682565b604080519215158352901515602083015201610168565b61019b61027c3660046114a5565b610b7b565b6101a5610c42565b61019b610cd0565b60005461015790600160c01b900463ffffffff1681565b6101d9610d5a565b6005546102cb9063ffffffff80821691600160201b90041682565b6040805163ffffffff938416815292909116602083015201610168565b6102fb6102f6366004611466565b610f1b565b6040805182511515815260209283015115159281019290925201610168565b6101d9610f79565b61019b6110cc565b61019b610338366004611466565b61114c565b61021e6111c5565b6003546040516370a0823160e01b815260009161010090046001600160a01b0316906370a082319061037b9033906004016113af565b602060405180830381865afa158015610398573d6000803e3d6000fd5b505050506040513d601f19601f820116820180604052508101906103bc9190611556565b11806103e057506103cb61098e565b6001600160a01b0316336001600160a01b0316145b6104055760405162461bcd60e51b81526004016103fc9061156f565b60405180910390fd5b600160065460ff16600281111561041e5761041e61141a565b146104755760405162461bcd60e51b815260206004820152602160248201527f566f74696e672073657373696f6e20686176656e7420737461727465642079656044820152601d60fa1b60648201526084016103fc565b3360009081526004602052604090205460ff1615156001036104d25760405162461bcd60e51b8152602060048201526016602482015275165bdd481a185d9948185b1c9958591e481d9bdd195960521b60448201526064016103fc565b3360009081526004602052604081208054600161ffff1990911661010085151502171790558054600160a01b900463ffffffff16906014610512836115d2565b91906101000a81548163ffffffff021916908363ffffffff160217905550508015610571576005805463ffffffff1690600061054d836115d2565b91906101000a81548163ffffffff021916908363ffffffff160217905550506105ae565b60058054600160201b900463ffffffff1690600461058e836115d2565b91906101000a81548163ffffffff021916908363ffffffff160217905550505b336000818152600460209081526040918290205482519384528415159184019190915260ff161515908201527f3dfd7809ab9d7fa429069bc25e3408257cb102b4630fc175ec3cc45c68e2eccf906060015b60405180910390a150565b6003546040516370a0823160e01b81526060916000916101009091046001600160a01b0316906370a08231906106459033906004016113af565b602060405180830381865afa158015610662573d6000803e3d6000fd5b505050506040513d601f19601f820116820180604052508101906106869190611556565b11806106aa575061069561098e565b6001600160a01b0316336001600160a01b0316145b6106c65760405162461bcd60e51b81526004016103fc9061156f565b600280546106d3906115f5565b80601f01602080910402602001604051908101604052809291908181526020018280546106ff906115f5565b801561074c5780601f106107215761010080835404028352916020019161074c565b820191906000526020600020905b81548152906001019060200180831161072f57829003601f168201915b5050505050905090565b61075e611289565b61076860006112e8565b565b6000610774611289565b600260065460ff16600281111561078d5761078d61141a565b146107aa5760405162461bcd60e51b81526004016103fc9061162f565b600080546064906107d19063ffffffff600160e01b8204811691600160c01b900416611666565b6107db919061168e565b6001546000805463ffffffff938416945090926064926108079290821691600160c01b90910416611666565b610811919061168e565b60005463ffffffff9182169250600160a01b900416811161092e576005546001600160801b038316906108539063ffffffff600160201b8204811691166116bf565b63ffffffff161061092e5760055463ffffffff600160201b82048116911611156108d5576003805460ff191660019081179091556040519081527f315f04420685c0bd611557283ec2627b1a6d122740c2d8c773f18b02e7c8e2679060200160405180910390a150506003805460ff60a81b1916600160a81b17905550600190565b6003805460ff19169055604051600081527f315f04420685c0bd611557283ec2627b1a6d122740c2d8c773f18b02e7c8e2679060200160405180910390a150506003805460ff60a81b1916600160a81b17905550600090565b60405162461bcd60e51b815260206004820152602f60248201527f4d696e696d756d2070617274696369706174696f6e20616e642f6f722071756f60448201526e1c9d5b481b9bdd081c995858da1959608a1b60648201526084016103fc565b6000546001600160a01b031690565b6109a5611289565b600060065460ff1660028111156109be576109be61141a565b146109db5760405162461bcd60e51b81526004016103fc906116e3565b60008263ffffffff161180156109f8575060648263ffffffff1611155b610a585760405162461bcd60e51b815260206004820152602b60248201527f51756f72756d2070657263656e74616765206d7573742062652062657477656560448201526a06e203120616e64203130360ac1b60648201526084016103fc565b60008163ffffffff16118015610a75575060648163ffffffff1611155b610ae75760405162461bcd60e51b815260206004820152603a60248201527f4d696e696d756d2070617274696369706174696f6e2070657263656e7461676560448201527f206d757374206265206265747765656e203120616e642031303000000000000060648201526084016103fc565b600080546001600160c01b0316600160c01b63ffffffff8681169182026001600160e01b031692909217600160e01b868416908102919091179093556001805463ffffffff19169285169283179055604080519182526020820193909352918201527fa98a773f640947036947f832800e5a0e77d99e94352558425427e77a32282e839060600160405180910390a1505050565b610b83611289565b600060065460ff166002811115610b9c57610b9c61141a565b14610bb95760405162461bcd60e51b81526004016103fc906116e3565b6000815111610c055760405162461bcd60e51b815260206004820152601860248201527750726f706f73616c2063616e6e6f7420626520656d70747960401b60448201526064016103fc565b6002610c118282611779565b507f40bc40a1960cad6361a22c17c3e7c998a6d189b4adad1d6e630ec3ed73a700ed60026040516106009190611839565b60028054610c4f906115f5565b80601f0160208091040260200160405190810160405280929190818152602001828054610c7b906115f5565b8015610cc85780601f10610c9d57610100808354040283529160200191610cc8565b820191906000526020600020905b815481529060010190602001808311610cab57829003601f168201915b505050505081565b610cd8611289565b600160065460ff166002811115610cf157610cf161141a565b14610d0e5760405162461bcd60e51b81526004016103fc906118c4565b6006805460ff191660029081179091556040517f0a97a4ee45751e2abf3e4fc8946939630b11b371ea8ae39ccdc3056e98f5cc3f91610d5091600191906118f2565b60405180910390a1565b6003546040516370a0823160e01b815260009182916101009091046001600160a01b0316906370a0823190610d939033906004016113af565b602060405180830381865afa158015610db0573d6000803e3d6000fd5b505050506040513d601f19601f82011682018060405250810190610dd49190611556565b1180610df85750610de361098e565b6001600160a01b0316336001600160a01b0316145b610e145760405162461bcd60e51b81526004016103fc9061156f565b600260065460ff166002811115610e2d57610e2d61141a565b14610e4a5760405162461bcd60e51b81526004016103fc9061162f565b60008054606490610e719063ffffffff600160e01b8204811691600160c01b900416611666565b610e7b919061168e565b6001546000805463ffffffff93841694509092606492610ea79290821691600160c01b90910416611666565b610eb1919061168e565b60005463ffffffff9182169250600160a01b900416811115610ed65760009250505090565b6005546001600160801b03831690610efd9063ffffffff600160201b8204811691166116bf565b63ffffffff161015610f125760009250505090565b60019250505090565b6040805180820190915260008082526020820152610f37611289565b506001600160a01b03811660009081526004602090815260409182902082518084019093525460ff80821615158452610100909104161515908201525b919050565b6003546040516370a0823160e01b815260009182916101009091046001600160a01b0316906370a0823190610fb29033906004016113af565b602060405180830381865afa158015610fcf573d6000803e3d6000fd5b505050506040513d601f19601f82011682018060405250810190610ff39190611556565b1180611017575061100261098e565b6001600160a01b0316336001600160a01b0316145b6110335760405162461bcd60e51b81526004016103fc9061156f565b600260065460ff16600281111561104c5761104c61141a565b146110695760405162461bcd60e51b81526004016103fc9061162f565b600354600160a81b900460ff166110c25760405162461bcd60e51b815260206004820152601f60248201527f526573756c7420686173206e6f74206265656e20636865636b6564207965740060448201526064016103fc565b5060035460ff1690565b6110d4611289565b600060065460ff1660028111156110ed576110ed61141a565b1461110a5760405162461bcd60e51b81526004016103fc906118c4565b6006805460ff191660019081179091556040517f0a97a4ee45751e2abf3e4fc8946939630b11b371ea8ae39ccdc3056e98f5cc3f91610d5091600091906118f2565b611154611289565b6001600160a01b0381166111b95760405162461bcd60e51b815260206004820152602660248201527f4f776e61626c653a206e6577206f776e657220697320746865207a65726f206160448201526564647265737360d01b60648201526084016103fc565b6111c2816112e8565b50565b6003546040516370a0823160e01b815260009182916101009091046001600160a01b0316906370a08231906111fe9033906004016113af565b602060405180830381865afa15801561121b573d6000803e3d6000fd5b505050506040513d601f19601f8201168201806040525081019061123f9190611556565b1180611263575061124e61098e565b6001600160a01b0316336001600160a01b0316145b61127f5760405162461bcd60e51b81526004016103fc9061156f565b5060065460ff1690565b3361129261098e565b6001600160a01b0316146107685760405162461bcd60e51b815260206004820181905260248201527f4f776e61626c653a2063616c6c6572206973206e6f7420746865206f776e657260448201526064016103fc565b600080546001600160a01b038381166001600160a01b0319831681178455604051919092169283917f8be0079c531659141344cd1fd0a4f28419497f9722a3daafe3b4186f6b6457e09190a35050565b60006020828403121561134a57600080fd5b8135801515811461135a57600080fd5b9392505050565b600060208083528351808285015260005b8181101561138e57858101830151858201604001528201611372565b506000604082860101526040601f19601f8301168501019250505092915050565b6001600160a01b0391909116815260200190565b803563ffffffff81168114610f7457600080fd5b6000806000606084860312156113ec57600080fd5b6113f5846113c3565b9250611403602085016113c3565b9150611411604085016113c3565b90509250925092565b634e487b7160e01b600052602160045260246000fd5b6003811061144e57634e487b7160e01b600052602160045260246000fd5b9052565b602081016114608284611430565b92915050565b60006020828403121561147857600080fd5b81356001600160a01b038116811461135a57600080fd5b634e487b7160e01b600052604160045260246000fd5b6000602082840312156114b757600080fd5b813567ffffffffffffffff808211156114cf57600080fd5b818401915084601f8301126114e357600080fd5b8135818111156114f5576114f561148f565b604051601f8201601f19908116603f0116810190838211818310171561151d5761151d61148f565b8160405282815287602084870101111561153657600080fd5b826020860160208301376000928101602001929092525095945050505050565b60006020828403121561156857600080fd5b5051919050565b6020808252602d908201527f596f75206861766520746f20686f6c6420612044616f204e465420746f20626560408201526c2061626c6520746f20766f746560981b606082015260800190565b634e487b7160e01b600052601160045260246000fd5b600063ffffffff8083168181036115eb576115eb6115bc565b6001019392505050565b600181811c9082168061160957607f821691505b60208210810361162957634e487b7160e01b600052602260045260246000fd5b50919050565b6020808252601f908201527f566f74696e672073657373696f6e206973206e6f7420656e6465642079657400604082015260600190565b63ffffffff818116838216028082169190828114611686576116866115bc565b505092915050565b600063ffffffff808416806116b357634e487b7160e01b600052601260045260246000fd5b92169190910492915050565b63ffffffff8181168382160190808211156116dc576116dc6115bc565b5092915050565b60208082526027908201527f54686520776f726b666c6f7720737461747573206d7573742062652050726f706040820152661bdcd85b14d95d60ca1b606082015260800190565b601f82111561177457600081815260208120601f850160051c810160208610156117515750805b601f850160051c820191505b818110156117705782815560010161175d565b5050505b505050565b815167ffffffffffffffff8111156117935761179361148f565b6117a7816117a184546115f5565b8461172a565b602080601f8311600181146117dc57600084156117c45750858301515b600019600386901b1c1916600185901b178555611770565b600085815260208120601f198616915b8281101561180b578886015182559484019460019091019084016117ec565b50858210156118295787850151600019600388901b60f8161c191681555b5050505050600190811b01905550565b600060208083526000845461184d816115f5565b8084870152604060018084166000811461186e5760018114611888576118b6565b60ff1985168984015283151560051b8901830195506118b6565b896000528660002060005b858110156118ae5781548b8201860152908301908801611893565b8a0184019650505b509398975050505050505050565b60208082526014908201527357726f6e6720576f726b666c6f7753746174757360601b604082015260600190565b604081016119008285611430565b61135a602083018461143056fea2646970667358221220b084eaacf7bad783244cf5c1c1bce39d0919eb3cccd7091e20b0516db6f37b4964736f6c63430008120033a264697066735822122026055bf0e12764c5caae599c44af1792ace04b2b2a025cc6fda8502a64459f0e64736f6c63430008120033",
  "immutableReferences": {},
  "source": "// SPDX-License-Identifier: MIT\n\npragma solidity 0.8.18;\n\nimport \"../node_modules/@openzeppelin/contracts/access/Ownable.sol\";\nimport \"./NewToken.sol\";\nimport \"./NewVoting.sol\";\n\n/**\n * @title NewDao.sol\n *\n * @author Xavier BARADA / github: https://github.com/XaViPanDx\n *\n * @notice NewDao.sol smart contract allow DAO admin chosen by the SCIC to configure\n * DAO with parameters (members datas and count up to date).\n * Also, on condition that DAO at least count 3 members, admin will be able to deploy\n * two new Smart Contract to manage DAO governance (NewToken.sol and NewVoting.sol).\n * Proposals for voting will be chosen by the community via a snapshot system.\n */\ncontract NewDao is Ownable {\n\n    /**\n     * @dev Number of members currently in the DAO.\n     */\n    uint128 private _memberCount;\n\n    /**\n     * @dev Count of proposals snapshots taken so far.\n     */\n    uint128 private _proposalCount; \n    \n    /**\n     * @dev The name of the DAO.\n     */ \n    string private _daoName; \n\n    /**\n     * @dev Struct to store information about each member.\n     */\n    struct Member {\n        address memberAddress;\n        uint256 memberIndex;\n        bool isMember;\n        string memberName;\n    }\n\n    /**\n     * @dev A mapping to store information about each member of the DAO.\n     */\n    mapping(address => Member) private _member;\n\n    /**\n     * @dev An array to store all members of the DAO.\n     */\n    Member[] private _members;\n\n    /**\n     * @dev A struct to store information about a proposal.\n     * \n     * @param id The ID of the proposal.\n     * @param result The result of the proposal.\n     * @param startDate The start date of the proposal.\n     * @param endDate The end date of the proposal.\n     */\n    struct Proposal {\n        uint256 id;\n        string result;\n        string startDate;\n        string endDate;\n    }\n\n    /**\n     * @dev A mapping to store information about each proposal.\n     */\n    mapping(uint256 => Proposal) private _proposals;\n\n    /**\n     * @dev Struct to store the token and voting contract addresses for a DAO admin.\n     */\n    struct TokenAndVotingContracts {  \n        address token;\n        address[] votingContracts;\n    }\n\n    /**\n     * @dev A mapping to store the token and voting contract addresses for each DAO admin.\n     */\n    mapping(address => TokenAndVotingContracts) private _tokenAndVotingContracts;\n\n    /**\n     * @dev Struct to store information about a contribution made by a member.\n     */\n    struct Contribution {\n        address memberAddress;\n        uint256 amount;\n        uint256 timestamp;\n    }\n\n    /**\n     * @dev A mapping to store contributions made by members.\n     */\n    mapping(address => Contribution[]) private _contributions;\n\n    /**\n     * @dev A mapping to store information about each newToken contract created.\n     */\n    mapping(address => address[]) private _userTokenContracts;\n\n    /**\n     * @dev A mapping to store information about each newVoting contract created.\n     */\n    mapping(address => address[]) private _userVotingContracts;\n \n    /**\n     * @dev NewDao events which allows to retrieve important information about DAO\n     * on the Dapp (members added end removed, new token and voting Smart Contracts, \n     * snapshot community result, contributions and payment received).\n     */\n    event MemberAdded(address memberAddress, uint memberIndex, bool isMember, string memberName, uint memberCount);\n    event MemberRemoved(address memberAddress, bool isMember, uint memberCount);\n    event TokenCreated(address tokenAddress, address creator);\n    event SnapshotResult(uint256 id, string result, string startDate, string endDate);\n    event VotingCreated(address indexed votingContract, address indexed creator, uint256 indexed contractIndex);\n    event ContributionReceived(address indexed memberAddress, uint256 amount, uint256 timestamp);\n    event PaymentReceived(address from, uint256 amount);\n    event ThankYou(address from, uint256 amount, string message);\n    \n    /**\n     * @dev NewDao constructor whitch allow to retrieve DAO's choesed name and\n     * wallet address of the DAO creator (msg.sender of the createDao() function)\n     * to be able to transfert Ownership to the DAO admin.\n     */\n    constructor(address _owner, string memory _name) {\n        transferOwnership(_owner);\n        _daoName = _name;\n    }\n \n    /**\n     * @dev addMember() function allows the owner to add a new member by their address and name.\n     * The function checks if the member is not already in the list, and then adds the new member\n     * to the members array, updates the member count, and emits a MemberAdded event.\n     *\n     * @param member_ and _name Member address and member name.\n     */\n    function addMember(address member_, string calldata _name) external onlyOwner {\n        require(!_member[member_].isMember, \"Member already exists\");\n        _member[member_].memberAddress = member_;\n        _member[member_].memberIndex = _members.length;\n        _member[member_].isMember = true;\n        _member[member_].memberName = _name;\n        _members.push(_member[member_]);\n        _memberCount++;\n        emit MemberAdded(member_, _members.length, _member[member_].isMember, _name, _memberCount);\n    }\n\n    /**\n     * @dev removeMember() function allows the owner to remove a member by their address.\n     * The function will replace the member to be removed with the last member in the members array,\n     * update the last member's index, and then decrease the member count.\n     *\n     * @param member_ Member address to remove.\n     */\n    function removeMember(address member_) external onlyOwner {\n        require(_member[member_].isMember, \"Member does not exist\");\n        uint256 indexToRemove = _member[member_].memberIndex;\n        Member storage lastMember = _members[_memberCount - 1];\n        _members[indexToRemove] = lastMember;\n        _member[lastMember.memberAddress].memberIndex = indexToRemove;\n        _members.pop();\n        delete _member[member_];\n        _member[member_].isMember = false;\n        _memberCount--;\n        emit MemberRemoved(member_, false, _memberCount);\n    }\n\n    /**\n     * @dev This function is called by the DAO admin to announce the results of a snapshot and to create a new proposal for voting.\n    * The function takes as input a string containing the result of the snapshot and the start and end dates of the voting period.\n    * The function increments the proposal ID and creates a new proposal with the given parameters.\n    * \n    * @param _result The result of the snapshot.\n    * @param _startDate The start date of the voting period.\n    * @param _endDate The end date of the voting period.\n    */\n    function snapshotResult(string memory _result, string memory _startDate, string memory _endDate) external onlyOwner returns(string memory) {\n        uint256 proposalId = _proposalCount;\n        _proposalCount++;\n        Proposal storage proposal = _proposals[proposalId];\n        proposal.id = proposalId;\n        proposal.result = _result;\n        proposal.startDate = _startDate;\n        proposal.endDate = _endDate; \n        emit SnapshotResult(proposal.id, proposal.result, proposal.startDate, proposal.endDate);\n        return _result;\n    }\n\n    /**\n     * @dev Returns whether an address is a member of the DAO.\n     * @param member_ Address of the member to check.\n     * @return A boolean indicating whether the address is a member.\n     */\n    function isMember(address member_) external view onlyOwner returns (bool) {\n        return _member[member_].isMember;\n    }\n\n    /**\n     * @dev Returns the DAO member at a given index.\n     * @param index Index of the member to retrieve.\n     * @return A Member struct containing the member's data.\n     */\n    function getMemberByIndex(uint64 index) external view onlyOwner returns (Member memory) {\n        require(index < _memberCount, \"Index out of bounds\");\n        return _members[index];\n    }\n\n    /**\n     * @dev Returns the total number of DAO members.\n     * @return An integer representing the number of members.\n     */\n    function getMemberCount() external view onlyOwner returns (uint) {\n        return _memberCount;\n    }\n\n    /**\n     * @dev Returns the name of the DAO.\n     * @return A string representing the DAO name.\n     */\n    function getDaoName() external view onlyOwner returns (string memory) {\n        return _daoName;\n    }\n\n    /**\n     * @dev CreateToken() function and its getter() are onlyOwner.\n     * This function allows the DAO admin to create a token Smart Contract that can mint and distribute\n     * tokens to members. These tokens will allow members to participate in DAO's voting sessions.\n     *\n     * @notice SCIC must have at least 3 registered members to be able to create a DAO token.\n     */\n    function createToken(string memory _name, string memory _symbol) external onlyOwner {\n        require(address(_tokenAndVotingContracts[msg.sender].token) == address(0), \"Token contract already created\");\n        require(_memberCount >= 3,\"SCIC must at least have 3 members\");\n        NewToken newToken = new NewToken(owner(), _name, _symbol);\n        _tokenAndVotingContracts[msg.sender].token = address(newToken);\n        _userTokenContracts[msg.sender].push(address(newToken));\n        emit TokenCreated(address(newToken), msg.sender);\n    }\n    \n    /**\n     * @dev This function allows the admin to retrieve a newToken Smart Contract address by index.\n     */\n    function getTokenContract(address _user) external view onlyOwner returns (address) {\n        require(_userTokenContracts[_user].length > 0, \"No token contract found for this user\");\n        return _userTokenContracts[_user][0];\n    }\n\n    /**\n     * @dev createvoting() function and getters() are onlyOwner.\n     * This first function will allow DAO admin to create voting Smarts Contracts\n     * to organize a vote for any proposal selected by members\n     * (proposal selected through a snapshot).\n     * TokenAddress is send to the newVoting contract constructor to\n     * verify that members are holding a DAO NFT to be able to access voting session.\n     * \n     * @notice SCIC must have at least 3 registered members to be able to create a DAO voting contract.\n     */\n    function createVoting() external onlyOwner {\n        TokenAndVotingContracts storage contracts = _tokenAndVotingContracts[msg.sender];\n        require(contracts.token != address(0), \"Token contract does not exist\");\n        require(_memberCount >= 3, \"SCIC must have at least 3 members\");\n        address tokenAddress = contracts.token;\n        NewVoting newVoting = new NewVoting(owner(), tokenAddress);\n        contracts.votingContracts.push(address(newVoting));\n        emit VotingCreated(address(newVoting), msg.sender, contracts.votingContracts.length);\n    }\n\n    /**\n     * @dev This function allows the admin to retrieve a newVoting Smart Contract address by index.\n     */\n    function getVotingContractByIndex(uint256 index) external view onlyOwner returns (address) {\n        TokenAndVotingContracts storage contracts = _tokenAndVotingContracts[msg.sender];\n        require(index < contracts.votingContracts.length, \"Index out of bounds\");\n        return contracts.votingContracts[index];\n    }\n\n    /**\n     * @dev This function allows the admin to retrieve voting Smart Contract counts by user address.\n     */\n    function getVotingContractCount() external view onlyOwner returns (uint) {\n        return _tokenAndVotingContracts[msg.sender].votingContracts.length;\n    }\n\n    /**\n     * @dev makeContribution() allows DAO's members to send founds to the DappESSSCIC\n     * Smart Contract to pay their contributions. \n     */\n    function makeContribution() external payable {\n        require(_member[msg.sender].isMember, \"Sender must be a DAO member\"); // TESTS?\n        require(msg.value > 0, \"Contribution amount must be greater than 0\");\n        Contribution memory newContribution;\n        newContribution.memberAddress = msg.sender;\n        newContribution.amount = msg.value;\n        newContribution.timestamp = block.timestamp;\n        _contributions[msg.sender].push(newContribution);\n        emit ContributionReceived(msg.sender, msg.value, block.timestamp);\n        emit ThankYou(msg.sender, msg.value, \"Thank you for your payment\");\n    }\n\n    /**\n     * @dev fallback() and receive() functions to allow Smart Contract\n     * to receive funds (donations)\n     */\n    fallback() external payable {\n        emit PaymentReceived(msg.sender, msg.value);\n        emit ThankYou(msg.sender, msg.value, \"Thank you for your payment\");\n    }\n\n    receive() external payable {\n        emit PaymentReceived(msg.sender, msg.value);\n        emit ThankYou(msg.sender, msg.value, \"Thank you for your payment\");\n    }\n}",
  "sourcePath": "/Users/xavydev/Documents/DAPP_ESS_SCIC2/truffle/contracts/NewDao.sol",
  "compiler": {
    "name": "solc",
    "version": "0.8.18+commit.87f61d96.Emscripten.clang"
  },
  "schemaVersion": "3.4.11",
  "updatedAt": "2023-04-07T10:23:02.702Z",
  "networkType": "ethereum",
  "devdoc": {
    "author": "Xavier BARADA / github: https://github.com/XaViPanDx",
    "events": {
      "MemberAdded(address,uint256,bool,string,uint256)": {
        "details": "NewDao events which allows to retrieve important information about DAO on the Dapp (members added end removed, new token and voting Smart Contracts,  snapshot community result, contributions and payment received)."
      }
    },
    "kind": "dev",
    "methods": {
      "addMember(address,string)": {
        "details": "addMember() function allows the owner to add a new member by their address and name. The function checks if the member is not already in the list, and then adds the new member to the members array, updates the member count, and emits a MemberAdded event.",
        "params": {
          "member_": "and _name Member address and member name."
        }
      },
      "constructor": {
        "details": "NewDao constructor whitch allow to retrieve DAO's choesed name and wallet address of the DAO creator (msg.sender of the createDao() function) to be able to transfert Ownership to the DAO admin."
      },
      "createToken(string,string)": {
        "details": "CreateToken() function and its getter() are onlyOwner. This function allows the DAO admin to create a token Smart Contract that can mint and distribute tokens to members. These tokens will allow members to participate in DAO's voting sessions."
      },
      "createVoting()": {
        "details": "createvoting() function and getters() are onlyOwner. This first function will allow DAO admin to create voting Smarts Contracts to organize a vote for any proposal selected by members (proposal selected through a snapshot). TokenAddress is send to the newVoting contract constructor to verify that members are holding a DAO NFT to be able to access voting session. "
      },
      "getDaoName()": {
        "details": "Returns the name of the DAO.",
        "returns": {
          "_0": "A string representing the DAO name."
        }
      },
      "getMemberByIndex(uint64)": {
        "details": "Returns the DAO member at a given index.",
        "params": {
          "index": "Index of the member to retrieve."
        },
        "returns": {
          "_0": "A Member struct containing the member's data."
        }
      },
      "getMemberCount()": {
        "details": "Returns the total number of DAO members.",
        "returns": {
          "_0": "An integer representing the number of members."
        }
      },
      "getTokenContract(address)": {
        "details": "This function allows the admin to retrieve a newToken Smart Contract address by index."
      },
      "getVotingContractByIndex(uint256)": {
        "details": "This function allows the admin to retrieve a newVoting Smart Contract address by index."
      },
      "getVotingContractCount()": {
        "details": "This function allows the admin to retrieve voting Smart Contract counts by user address."
      },
      "isMember(address)": {
        "details": "Returns whether an address is a member of the DAO.",
        "params": {
          "member_": "Address of the member to check."
        },
        "returns": {
          "_0": "A boolean indicating whether the address is a member."
        }
      },
      "makeContribution()": {
        "details": "makeContribution() allows DAO's members to send founds to the DappESSSCIC Smart Contract to pay their contributions. "
      },
      "owner()": {
        "details": "Returns the address of the current owner."
      },
      "removeMember(address)": {
        "details": "removeMember() function allows the owner to remove a member by their address. The function will replace the member to be removed with the last member in the members array, update the last member's index, and then decrease the member count.",
        "params": {
          "member_": "Member address to remove."
        }
      },
      "renounceOwnership()": {
        "details": "Leaves the contract without owner. It will not be possible to call `onlyOwner` functions anymore. Can only be called by the current owner. NOTE: Renouncing ownership will leave the contract without an owner, thereby removing any functionality that is only available to the owner."
      },
      "snapshotResult(string,string,string)": {
        "details": "This function is called by the DAO admin to announce the results of a snapshot and to create a new proposal for voting. The function takes as input a string containing the result of the snapshot and the start and end dates of the voting period. The function increments the proposal ID and creates a new proposal with the given parameters. ",
        "params": {
          "_endDate": "The end date of the voting period.",
          "_result": "The result of the snapshot.",
          "_startDate": "The start date of the voting period."
        }
      },
      "transferOwnership(address)": {
        "details": "Transfers ownership of the contract to a new account (`newOwner`). Can only be called by the current owner."
      }
    },
    "stateVariables": {
      "_contributions": {
        "details": "A mapping to store contributions made by members."
      },
      "_daoName": {
        "details": "The name of the DAO."
      },
      "_member": {
        "details": "A mapping to store information about each member of the DAO."
      },
      "_memberCount": {
        "details": "Number of members currently in the DAO."
      },
      "_members": {
        "details": "An array to store all members of the DAO."
      },
      "_proposalCount": {
        "details": "Count of proposals snapshots taken so far."
      },
      "_proposals": {
        "details": "A mapping to store information about each proposal."
      },
      "_tokenAndVotingContracts": {
        "details": "A mapping to store the token and voting contract addresses for each DAO admin."
      },
      "_userTokenContracts": {
        "details": "A mapping to store information about each newToken contract created."
      },
      "_userVotingContracts": {
        "details": "A mapping to store information about each newVoting contract created."
      }
    },
    "title": "NewDao.sol",
    "version": 1
  },
  "userdoc": {
    "kind": "user",
    "methods": {
      "createToken(string,string)": {
        "notice": "SCIC must have at least 3 registered members to be able to create a DAO token."
      },
      "createVoting()": {
        "notice": "SCIC must have at least 3 registered members to be able to create a DAO voting contract."
      }
    },
    "notice": "NewDao.sol smart contract allow DAO admin chosen by the SCIC to configure DAO with parameters (members datas and count up to date). Also, on condition that DAO at least count 3 members, admin will be able to deploy two new Smart Contract to manage DAO governance (NewToken.sol and NewVoting.sol). Proposals for voting will be chosen by the community via a snapshot system.",
    "version": 1
  }
}