{
  "contractName": "NewToken",
  "abi": [
    {
      "inputs": [
        {
          "internalType": "address",
          "name": "_owner",
          "type": "address"
        },
        {
          "internalType": "string",
          "name": "_name",
          "type": "string"
        },
        {
          "internalType": "string",
          "name": "_symbol",
          "type": "string"
        }
      ],
      "stateMutability": "nonpayable",
      "type": "constructor"
    },
    {
      "anonymous": false,
      "inputs": [
        {
          "indexed": true,
          "internalType": "address",
          "name": "owner",
          "type": "address"
        },
        {
          "indexed": true,
          "internalType": "address",
          "name": "approved",
          "type": "address"
        },
        {
          "indexed": true,
          "internalType": "uint256",
          "name": "tokenId",
          "type": "uint256"
        }
      ],
      "name": "Approval",
      "type": "event"
    },
    {
      "anonymous": false,
      "inputs": [
        {
          "indexed": true,
          "internalType": "address",
          "name": "owner",
          "type": "address"
        },
        {
          "indexed": true,
          "internalType": "address",
          "name": "operator",
          "type": "address"
        },
        {
          "indexed": false,
          "internalType": "bool",
          "name": "approved",
          "type": "bool"
        }
      ],
      "name": "ApprovalForAll",
      "type": "event"
    },
    {
      "anonymous": false,
      "inputs": [
        {
          "indexed": true,
          "internalType": "address",
          "name": "nftOwner",
          "type": "address"
        },
        {
          "indexed": true,
          "internalType": "address",
          "name": "approved",
          "type": "address"
        },
        {
          "indexed": true,
          "internalType": "uint256",
          "name": "tokenId",
          "type": "uint256"
        }
      ],
      "name": "MemberApproval",
      "type": "event"
    },
    {
      "anonymous": false,
      "inputs": [
        {
          "indexed": false,
          "internalType": "address",
          "name": "tokenOwner",
          "type": "address"
        },
        {
          "indexed": false,
          "internalType": "uint256",
          "name": "nftId",
          "type": "uint256"
        }
      ],
      "name": "NftBurned",
      "type": "event"
    },
    {
      "anonymous": false,
      "inputs": [
        {
          "indexed": false,
          "internalType": "address",
          "name": "newOwner",
          "type": "address"
        },
        {
          "indexed": false,
          "internalType": "uint256",
          "name": "nftId",
          "type": "uint256"
        }
      ],
      "name": "NftMinted",
      "type": "event"
    },
    {
      "anonymous": false,
      "inputs": [
        {
          "indexed": true,
          "internalType": "address",
          "name": "previousOwner",
          "type": "address"
        },
        {
          "indexed": true,
          "internalType": "address",
          "name": "newOwner",
          "type": "address"
        }
      ],
      "name": "OwnershipTransferred",
      "type": "event"
    },
    {
      "anonymous": false,
      "inputs": [
        {
          "indexed": true,
          "internalType": "address",
          "name": "from",
          "type": "address"
        },
        {
          "indexed": true,
          "internalType": "address",
          "name": "to",
          "type": "address"
        },
        {
          "indexed": true,
          "internalType": "uint256",
          "name": "tokenId",
          "type": "uint256"
        }
      ],
      "name": "Transfer",
      "type": "event"
    },
    {
      "inputs": [
        {
          "internalType": "address",
          "name": "to",
          "type": "address"
        },
        {
          "internalType": "uint256",
          "name": "tokenId",
          "type": "uint256"
        }
      ],
      "name": "approve",
      "outputs": [],
      "stateMutability": "nonpayable",
      "type": "function"
    },
    {
      "inputs": [
        {
          "internalType": "address",
          "name": "owner",
          "type": "address"
        }
      ],
      "name": "balanceOf",
      "outputs": [
        {
          "internalType": "uint256",
          "name": "",
          "type": "uint256"
        }
      ],
      "stateMutability": "view",
      "type": "function",
      "constant": true
    },
    {
      "inputs": [
        {
          "internalType": "uint256",
          "name": "tokenId",
          "type": "uint256"
        }
      ],
      "name": "getApproved",
      "outputs": [
        {
          "internalType": "address",
          "name": "",
          "type": "address"
        }
      ],
      "stateMutability": "view",
      "type": "function",
      "constant": true
    },
    {
      "inputs": [
        {
          "internalType": "address",
          "name": "owner",
          "type": "address"
        },
        {
          "internalType": "address",
          "name": "operator",
          "type": "address"
        }
      ],
      "name": "isApprovedForAll",
      "outputs": [
        {
          "internalType": "bool",
          "name": "",
          "type": "bool"
        }
      ],
      "stateMutability": "view",
      "type": "function",
      "constant": true
    },
    {
      "inputs": [],
      "name": "owner",
      "outputs": [
        {
          "internalType": "address",
          "name": "",
          "type": "address"
        }
      ],
      "stateMutability": "view",
      "type": "function",
      "constant": true
    },
    {
      "inputs": [
        {
          "internalType": "uint256",
          "name": "tokenId",
          "type": "uint256"
        }
      ],
      "name": "ownerOf",
      "outputs": [
        {
          "internalType": "address",
          "name": "",
          "type": "address"
        }
      ],
      "stateMutability": "view",
      "type": "function",
      "constant": true
    },
    {
      "inputs": [],
      "name": "renounceOwnership",
      "outputs": [],
      "stateMutability": "nonpayable",
      "type": "function"
    },
    {
      "inputs": [
        {
          "internalType": "bytes4",
          "name": "interfaceId",
          "type": "bytes4"
        }
      ],
      "name": "supportsInterface",
      "outputs": [
        {
          "internalType": "bool",
          "name": "",
          "type": "bool"
        }
      ],
      "stateMutability": "view",
      "type": "function",
      "constant": true
    },
    {
      "inputs": [
        {
          "internalType": "uint256",
          "name": "tokenId",
          "type": "uint256"
        }
      ],
      "name": "tokenURI",
      "outputs": [
        {
          "internalType": "string",
          "name": "",
          "type": "string"
        }
      ],
      "stateMutability": "view",
      "type": "function",
      "constant": true
    },
    {
      "inputs": [
        {
          "internalType": "address",
          "name": "newOwner",
          "type": "address"
        }
      ],
      "name": "transferOwnership",
      "outputs": [],
      "stateMutability": "nonpayable",
      "type": "function"
    },
    {
      "inputs": [
        {
          "internalType": "address",
          "name": "_to",
          "type": "address"
        }
      ],
      "name": "safeMint",
      "outputs": [
        {
          "internalType": "uint256",
          "name": "",
          "type": "uint256"
        }
      ],
      "stateMutability": "nonpayable",
      "type": "function"
    },
    {
      "inputs": [
        {
          "internalType": "address",
          "name": "to",
          "type": "address"
        },
        {
          "internalType": "uint256",
          "name": "tokenId",
          "type": "uint256"
        }
      ],
      "name": "approveByMember",
      "outputs": [],
      "stateMutability": "nonpayable",
      "type": "function"
    },
    {
      "inputs": [
        {
          "internalType": "uint256",
          "name": "tokenId",
          "type": "uint256"
        }
      ],
      "name": "burn",
      "outputs": [],
      "stateMutability": "nonpayable",
      "type": "function"
    },
    {
      "inputs": [
        {
          "internalType": "address",
          "name": "_address",
          "type": "address"
        }
      ],
      "name": "getNftIdByOwner",
      "outputs": [
        {
          "internalType": "uint256",
          "name": "",
          "type": "uint256"
        }
      ],
      "stateMutability": "view",
      "type": "function",
      "constant": true
    },
    {
      "inputs": [],
      "name": "name",
      "outputs": [
        {
          "internalType": "string",
          "name": "",
          "type": "string"
        }
      ],
      "stateMutability": "view",
      "type": "function",
      "constant": true
    },
    {
      "inputs": [],
      "name": "symbol",
      "outputs": [
        {
          "internalType": "string",
          "name": "",
          "type": "string"
        }
      ],
      "stateMutability": "view",
      "type": "function",
      "constant": true
    },
    {
      "inputs": [
        {
          "internalType": "address",
          "name": "",
          "type": "address"
        },
        {
          "internalType": "address",
          "name": "",
          "type": "address"
        },
        {
          "internalType": "uint256",
          "name": "",
          "type": "uint256"
        }
      ],
      "name": "transferFrom",
      "outputs": [],
      "stateMutability": "pure",
      "type": "function",
      "constant": true
    },
    {
      "inputs": [
        {
          "internalType": "address",
          "name": "",
          "type": "address"
        },
        {
          "internalType": "address",
          "name": "",
          "type": "address"
        },
        {
          "internalType": "uint256",
          "name": "",
          "type": "uint256"
        }
      ],
      "name": "safeTransferFrom",
      "outputs": [],
      "stateMutability": "pure",
      "type": "function",
      "constant": true
    },
    {
      "inputs": [
        {
          "internalType": "address",
          "name": "",
          "type": "address"
        },
        {
          "internalType": "address",
          "name": "",
          "type": "address"
        },
        {
          "internalType": "uint256",
          "name": "",
          "type": "uint256"
        },
        {
          "internalType": "bytes",
          "name": "",
          "type": "bytes"
        }
      ],
      "name": "safeTransferFrom",
      "outputs": [],
      "stateMutability": "pure",
      "type": "function",
      "constant": true
    },
    {
      "inputs": [
        {
          "internalType": "address",
          "name": "",
          "type": "address"
        },
        {
          "internalType": "bool",
          "name": "",
          "type": "bool"
        }
      ],
      "name": "setApprovalForAll",
      "outputs": [],
      "stateMutability": "pure",
      "type": "function",
      "constant": true
    }
  ],
  "bytecode": "0x60806040523480156200001157600080fd5b50604051620018da380380620018da83398101604081905262000034916200028f565b8181620000413362000099565b60016200004f8382620003a8565b5060026200005e8282620003a8565b5050506200007283620000e960201b60201c565b6008620000808382620003a8565b5060096200008f8282620003a8565b5050505062000474565b600080546001600160a01b038381166001600160a01b0319831681178455604051919092169283917f8be0079c531659141344cd1fd0a4f28419497f9722a3daafe3b4186f6b6457e09190a35050565b620000f36200016c565b6001600160a01b0381166200015e5760405162461bcd60e51b815260206004820152602660248201527f4f776e61626c653a206e6577206f776e657220697320746865207a65726f206160448201526564647265737360d01b60648201526084015b60405180910390fd5b620001698162000099565b50565b6000546001600160a01b03163314620001c85760405162461bcd60e51b815260206004820181905260248201527f4f776e61626c653a2063616c6c6572206973206e6f7420746865206f776e6572604482015260640162000155565b565b634e487b7160e01b600052604160045260246000fd5b600082601f830112620001f257600080fd5b81516001600160401b03808211156200020f576200020f620001ca565b604051601f8301601f19908116603f011681019082821181831017156200023a576200023a620001ca565b816040528381526020925086838588010111156200025757600080fd5b600091505b838210156200027b57858201830151818301840152908201906200025c565b600093810190920192909252949350505050565b600080600060608486031215620002a557600080fd5b83516001600160a01b0381168114620002bd57600080fd5b60208501519093506001600160401b0380821115620002db57600080fd5b620002e987838801620001e0565b935060408601519150808211156200030057600080fd5b506200030f86828701620001e0565b9150509250925092565b600181811c908216806200032e57607f821691505b6020821081036200034f57634e487b7160e01b600052602260045260246000fd5b50919050565b601f821115620003a357600081815260208120601f850160051c810160208610156200037e5750805b601f850160051c820191505b818110156200039f578281556001016200038a565b5050505b505050565b81516001600160401b03811115620003c457620003c4620001ca565b620003dc81620003d5845462000319565b8462000355565b602080601f831160018114620004145760008415620003fb5750858301515b600019600386901b1c1916600185901b1785556200039f565b600085815260208120601f198616915b82811015620004455788860151825594840194600190910190840162000424565b5085821015620004645787850151600019600388901b60f8161c191681555b5050505050600190811b01905550565b61145680620004846000396000f3fe608060405234801561001057600080fd5b506004361061012c5760003560e01c80636352211e116100ad578063a22cb46511610071578063a22cb46514610262578063b88d4fde14610270578063c87b56dd1461027e578063e985e9c514610291578063f2fde38b146102a457600080fd5b80636352211e1461021b57806370a082311461022e578063715018a6146102415780638da5cb5b1461024957806395d89b411461025a57600080fd5b806340d097c3116100f457806340d097c3146101c157806342842e0e146101ae57806342966c68146101e2578063541f2436146101f55780635f088a631461020857600080fd5b806301ffc9a71461013157806306fdde0314610159578063081812fc1461016e578063095ea7b31461019957806323b872dd146101ae575b600080fd5b61014461013f366004611010565b6102b7565b60405190151581526020015b60405180910390f35b610161610309565b604051610150919061107d565b61018161017c366004611090565b6103a3565b6040516001600160a01b039091168152602001610150565b6101ac6101a73660046110c0565b6103ca565b005b6101ac6101bc3660046110ea565b6104e4565b6101d46101cf366004611126565b610540565b604051908152602001610150565b6101ac6101f0366004611090565b6105de565b6101d4610203366004611126565b6106ae565b6101ac6102163660046110c0565b6106d7565b610181610229366004611090565b6107e1565b6101d461023c366004611126565b610816565b6101ac61089c565b6000546001600160a01b0316610181565b6101616108b0565b6101ac6101bc366004611141565b6101ac6101bc366004611193565b61016161028c366004611090565b6108c7565b61014461029f36600461126f565b61093b565b6101ac6102b2366004611126565b610969565b60006001600160e01b031982166380ac58cd60e01b14806102e857506001600160e01b03198216635b5e139f60e01b145b8061030357506301ffc9a760e01b6001600160e01b03198316145b92915050565b60606103136109e2565b60088054610320906112a2565b80601f016020809104026020016040519081016040528092919081815260200182805461034c906112a2565b80156103995780601f1061036e57610100808354040283529160200191610399565b820191906000526020600020905b81548152906001019060200180831161037c57829003601f168201915b5050505050905090565b60006103ae82610a3c565b506000908152600560205260409020546001600160a01b031690565b60006103d5826107e1565b9050806001600160a01b0316836001600160a01b0316036104475760405162461bcd60e51b815260206004820152602160248201527f4552433732313a20617070726f76616c20746f2063757272656e74206f776e656044820152603960f91b60648201526084015b60405180910390fd5b336001600160a01b03821614806104635750610463813361093b565b6104d55760405162461bcd60e51b815260206004820152603d60248201527f4552433732313a20617070726f76652063616c6c6572206973206e6f7420746f60448201527f6b656e206f776e6572206f7220617070726f76656420666f7220616c6c000000606482015260840161043e565b6104df8383610a61565b505050565b60405162461bcd60e51b815260206004820152602b60248201527f5472616e736665727320617265206e6f7420616c6c6f77656420696e2074686960448201526a399031b7b73a3930b1ba1760a91b606482015260840161043e565b600061054a6109e2565b610558600780546001019055565b600061056360075490565b905061056f8382610acf565b6001600160a01b0383166000818152600a602090815260409182902080546001600160a01b03191684178155600101849055815192835282018390527ff2b290a76feb54be358b555507421d765609171aefa0646f109a653228ff81b8910160405180910390a190505b919050565b6105e66109e2565b6105f03382610aed565b6106525760405162461bcd60e51b815260206004820152602d60248201527f4552433732313a2063616c6c6572206973206e6f7420746f6b656e206f776e6560448201526c1c881bdc88185c1c1c9bdd9959609a1b606482015260840161043e565b600061065d826107e1565b905061066882610b4c565b604080516001600160a01b0383168152602081018490527f4124e08f3a7db6516639a90c8ef7f6f730d82e3c5c76c50a644b1e84cddaa89a910160405180910390a15050565b60006106b86109e2565b506001600160a01b03166000908152600a602052604090206001015490565b60006106e233610816565b1161072f5760405162461bcd60e51b815260206004820152601c60248201527f596f7520646f6e2774206861766520746f6b656e20746f206275726e00000000604482015260640161043e565b33610739826107e1565b6001600160a01b03161461079b5760405162461bcd60e51b8152602060048201526024808201527f43616c6c6572206973206e6f7420746865206f776e6572206f6620746865207460448201526337b5b2b760e11b606482015260840161043e565b6107a582826103ca565b60405181906001600160a01b0384169033907f83d382e09cf0ae41b7699ab44b94782318df9bbfdf538a1e9efdc124ce4a55e390600090a45050565b6000818152600360205260408120546001600160a01b0316806103035760405162461bcd60e51b815260040161043e906112dc565b60006001600160a01b0382166108805760405162461bcd60e51b815260206004820152602960248201527f4552433732313a2061646472657373207a65726f206973206e6f7420612076616044820152683634b21037bbb732b960b91b606482015260840161043e565b506001600160a01b031660009081526004602052604090205490565b6108a46109e2565b6108ae6000610be1565b565b60606108ba6109e2565b60098054610320906112a2565b60606108d282610a3c565b60006108e960408051602081019091526000815290565b905060008151116109095760405180602001604052806000815250610934565b8061091384610c31565b60405160200161092492919061130e565b6040516020818303038152906040525b9392505050565b6001600160a01b03918216600090815260066020908152604080832093909416825291909152205460ff1690565b6109716109e2565b6001600160a01b0381166109d65760405162461bcd60e51b815260206004820152602660248201527f4f776e61626c653a206e6577206f776e657220697320746865207a65726f206160448201526564647265737360d01b606482015260840161043e565b6109df81610be1565b50565b6000546001600160a01b031633146108ae5760405162461bcd60e51b815260206004820181905260248201527f4f776e61626c653a2063616c6c6572206973206e6f7420746865206f776e6572604482015260640161043e565b610a4581610cc4565b6109df5760405162461bcd60e51b815260040161043e906112dc565b600081815260056020526040902080546001600160a01b0319166001600160a01b0384169081179091558190610a96826107e1565b6001600160a01b03167f8c5be1e5ebec7d5bd14f71427d1e84f3dd0314c0f7b2291e5b200ac8c7c3b92560405160405180910390a45050565b610ae9828260405180602001604052806000815250610ce1565b5050565b600080610af9836107e1565b9050806001600160a01b0316846001600160a01b03161480610b205750610b20818561093b565b80610b445750836001600160a01b0316610b39846103a3565b6001600160a01b0316145b949350505050565b6000610b57826107e1565b9050610b62826107e1565b600083815260056020908152604080832080546001600160a01b03199081169091556001600160a01b0385168085526004845282852080546000190190558785526003909352818420805490911690555192935084927fddf252ad1be2c89b69c2b068fc378daa952ba7f163c4a11628f55a4df523b3ef908390a45050565b600080546001600160a01b038381166001600160a01b0319831681178455604051919092169283917f8be0079c531659141344cd1fd0a4f28419497f9722a3daafe3b4186f6b6457e09190a35050565b60606000610c3e83610d14565b600101905060008167ffffffffffffffff811115610c5e57610c5e61117d565b6040519080825280601f01601f191660200182016040528015610c88576020820181803683370190505b5090508181016020015b600019016f181899199a1a9b1b9c1cb0b131b232b360811b600a86061a8153600a8504945084610c9257509392505050565b6000908152600360205260409020546001600160a01b0316151590565b610ceb8383610dec565b610cf86000848484610ef9565b6104df5760405162461bcd60e51b815260040161043e9061133d565b60008072184f03e93ff9f4daa797ed6e38ed64bf6a1f0160401b8310610d535772184f03e93ff9f4daa797ed6e38ed64bf6a1f0160401b830492506040015b6d04ee2d6d415b85acef81000000008310610d7f576d04ee2d6d415b85acef8100000000830492506020015b662386f26fc100008310610d9d57662386f26fc10000830492506010015b6305f5e1008310610db5576305f5e100830492506008015b6127108310610dc957612710830492506004015b60648310610ddb576064830492506002015b600a83106103035760010192915050565b6001600160a01b038216610e425760405162461bcd60e51b815260206004820181905260248201527f4552433732313a206d696e7420746f20746865207a65726f2061646472657373604482015260640161043e565b610e4b81610cc4565b15610e685760405162461bcd60e51b815260040161043e9061138f565b610e7181610cc4565b15610e8e5760405162461bcd60e51b815260040161043e9061138f565b6001600160a01b038216600081815260046020908152604080832080546001019055848352600390915280822080546001600160a01b0319168417905551839291907fddf252ad1be2c89b69c2b068fc378daa952ba7f163c4a11628f55a4df523b3ef908290a45050565b60006001600160a01b0384163b15610fef57604051630a85bd0160e11b81526001600160a01b0385169063150b7a0290610f3d9033908990889088906004016113c6565b6020604051808303816000875af1925050508015610f78575060408051601f3d908101601f19168201909252610f7591810190611403565b60015b610fd5573d808015610fa6576040519150601f19603f3d011682016040523d82523d6000602084013e610fab565b606091505b508051600003610fcd5760405162461bcd60e51b815260040161043e9061133d565b805181602001fd5b6001600160e01b031916630a85bd0160e11b149050610b44565b506001949350505050565b6001600160e01b0319811681146109df57600080fd5b60006020828403121561102257600080fd5b813561093481610ffa565b60005b83811015611048578181015183820152602001611030565b50506000910152565b6000815180845261106981602086016020860161102d565b601f01601f19169290920160200192915050565b6020815260006109346020830184611051565b6000602082840312156110a257600080fd5b5035919050565b80356001600160a01b03811681146105d957600080fd5b600080604083850312156110d357600080fd5b6110dc836110a9565b946020939093013593505050565b6000806000606084860312156110ff57600080fd5b611108846110a9565b9250611116602085016110a9565b9150604084013590509250925092565b60006020828403121561113857600080fd5b610934826110a9565b6000806040838503121561115457600080fd5b61115d836110a9565b91506020830135801515811461117257600080fd5b809150509250929050565b634e487b7160e01b600052604160045260246000fd5b600080600080608085870312156111a957600080fd5b6111b2856110a9565b93506111c0602086016110a9565b925060408501359150606085013567ffffffffffffffff808211156111e457600080fd5b818701915087601f8301126111f857600080fd5b81358181111561120a5761120a61117d565b604051601f8201601f19908116603f011681019083821181831017156112325761123261117d565b816040528281528a602084870101111561124b57600080fd5b82602086016020830137600060208483010152809550505050505092959194509250565b6000806040838503121561128257600080fd5b61128b836110a9565b9150611299602084016110a9565b90509250929050565b600181811c908216806112b657607f821691505b6020821081036112d657634e487b7160e01b600052602260045260246000fd5b50919050565b602080825260189082015277115490cdcc8c4e881a5b9d985b1a59081d1bdad95b88125160421b604082015260600190565b6000835161132081846020880161102d565b83519083019061133481836020880161102d565b01949350505050565b60208082526032908201527f4552433732313a207472616e7366657220746f206e6f6e20455243373231526560408201527131b2b4bb32b91034b6b83632b6b2b73a32b960711b606082015260800190565b6020808252601c908201527f4552433732313a20746f6b656e20616c7265616479206d696e74656400000000604082015260600190565b6001600160a01b03858116825284166020820152604081018390526080606082018190526000906113f990830184611051565b9695505050505050565b60006020828403121561141557600080fd5b815161093481610ffa56fea264697066735822122027b99dc918b1e99591a808e98d75353613ab5c00821c4f6065121b2224e6687764736f6c63430008120033",
  "immutableReferences": {},
  "source": "// SPDX-License-Identifier: MIT\n\npragma solidity 0.8.18;\n\nimport \"../node_modules/@openzeppelin/contracts/access/Ownable.sol\";\nimport \"../node_modules/@openzeppelin/contracts/token/ERC721/ERC721.sol\";\nimport \"../node_modules/@openzeppelin/contracts/utils/Counters.sol\";\nimport \"../node_modules/@openzeppelin/contracts/token/ERC721/extensions/ERC721Burnable.sol\";\n\n/**\n * @title NewToken.sol\n *\n * @author Xavier BARADA / github: https://github.com/XaViPanDx\n *\n * @notice NewTokencontract allows the owner to mint new NFTs and burn existing ones by approval.\n * (case of remove a member from DAO). \n * Transfers and approval functions are disabled.\n * The contract owner can also retrieve the ID of an NFT owned by a specific address.\n */\ncontract NewToken is Ownable, ERC721, ERC721Burnable {\n    \n    /*\n     * @dev Token ID counter.\n     */\n    using Counters for Counters.Counter;\n    Counters.Counter private _tokenIds;\n\n    \n    /*\n     * @dev Name and symbol of the token.\n     */\n    string private _tokenName;\n    string private _tokenSymbol;\n    \n    /*\n     * @dev Struct to store NFT owner's address and ID in a private mapping.\n     */\n    struct NftOwner {\n        address newOwner;\n        uint256 nftId;\n    }\n\n    mapping(address => NftOwner) private _nftOwner;\n\n    /*\n     * @dev NewToken events which allows to retrieve important information about DAO\n     * on the Dapp (NFT minted by member address and tokenId, approvals by tokenOwner\n     * to DAO admin to permit the burn of specific token by member address and tokenID). \n     */\n    event NftMinted(address newOwner, uint nftId);\n    event MemberApproval(address indexed nftOwner, address indexed approved, uint256 indexed tokenId);\n    event NftBurned(address tokenOwner, uint256 nftId);\n\n    /**\n     * @dev Constructor that sets the owner, token name, and token symbol.\n     * @param _owner The address of the contract owner.\n     * @param _name The name of the token.\n     * @param _symbol The symbol of the token.\n     */\n    constructor(address _owner, string memory _name, string memory _symbol) ERC721(_name, _symbol) {\n        transferOwnership(_owner);\n        _tokenName = _name;\n        _tokenSymbol = _symbol;\n    }\n\n    /**\n     * @dev Mints a new NFT and assigns ownership to the given address.\n     * @param _to The address that will receive the newly minted NFT.\n     * @return The ID of the newly minted NFT.\n     */\n    function safeMint(address _to) external onlyOwner returns (uint) {\n        _tokenIds.increment();\n        uint newTokenId = _tokenIds.current();\n        _safeMint(_to, newTokenId);\n        _nftOwner[_to].newOwner = _to;\n        _nftOwner[_to].nftId = newTokenId;\n        emit NftMinted(_to, newTokenId);\n        return newTokenId;\n    }  \n\n    /**\n     * @dev Approves a transfer of the NFT from the owner's address to the given address.\n     * @param to The address to which the NFT is being transferred.\n     * @param tokenId The ID of the NFT.\n     */\n    function approveByMember(address to, uint256 tokenId) external {\n        require(balanceOf(msg.sender) > 0, \"You don't have token to burn\");\n        require(ownerOf(tokenId) == msg.sender, \"Caller is not the owner of the token\");\n        approve(to, tokenId);\n        emit MemberApproval(msg.sender, to, tokenId);\n    }\n\n    /**\n     * @dev Burns the NFT with the given ID.\n     * @param tokenId The ID of the NFT to burn.\n     */\n    function burn(uint256 tokenId) public override onlyOwner {\n        require(_isApprovedOrOwner(_msgSender(), tokenId), \"ERC721: caller is not token owner or approved\");\n        address tokenOwner = ownerOf(tokenId); \n        _burn(tokenId);\n        emit NftBurned(tokenOwner, tokenId); \n    }\n\n    /**\n     * @dev Returns the ID of the NFT owned by a given address.\n     * @param _address The address of the NFT owner.\n     * @return The ID of the NFT owned by the given address.\n     */   \n    function getNftIdByOwner(address _address) external view onlyOwner returns (uint) { // POUR BRULER BON NFT FCTION ADDRESS\n        return _nftOwner[_address].nftId;\n    }\n\n    /**\n     * @dev Returns the name of the token.\n     * @return A string representing the name of the token.\n     */\n    function name() public view override onlyOwner returns (string memory) {\n        return _tokenName;\n    }\n\n    /**\n     * @dev Returns the symbol of the token.\n     * @return A string representing the symbol of the token.\n     */\n    function symbol() public view override onlyOwner returns (string memory) {\n        return _tokenSymbol;\n    }\n    \n    /**\n     * @dev Disables the transfer functions in this contract.\n     * Overrides the transfer functions in ERC721 to revert when called.\n     */\n    function transferFrom(address , address , uint256) public pure override {\n        revert(\"Transfers are not allowed in this contract.\");\n    }\n        \n   function safeTransferFrom(address, address, uint256) public pure override {\n        revert(\"Transfers are not allowed in this contract.\");\n    }\n\n    function safeTransferFrom(address, address, uint256, bytes memory) public pure override {\n        revert(\"Transfers are not allowed in this contract.\");\n    }\n\n    function _safeTransfer(address, address, uint256, bytes memory) internal pure override {\n        revert(\"Transfers are not allowed in this contract.\");\n    }\n\n    function setApprovalForAll(address, bool) public pure override {\n        revert(\"Transfers are not allowed in this contract.\");\n    }    \n}",
  "sourcePath": "/Users/xavydev/Documents/DAPP_ESS_SCIC2/truffle/contracts/NewToken.sol",
  "compiler": {
    "name": "solc",
    "version": "0.8.18+commit.87f61d96.Emscripten.clang"
  },
  "schemaVersion": "3.4.11",
  "updatedAt": "2023-04-07T10:23:02.718Z",
  "networkType": "ethereum",
  "devdoc": {
    "author": "Xavier BARADA / github: https://github.com/XaViPanDx",
    "events": {
      "Approval(address,address,uint256)": {
        "details": "Emitted when `owner` enables `approved` to manage the `tokenId` token."
      },
      "ApprovalForAll(address,address,bool)": {
        "details": "Emitted when `owner` enables or disables (`approved`) `operator` to manage all of its assets."
      },
      "Transfer(address,address,uint256)": {
        "details": "Emitted when `tokenId` token is transferred from `from` to `to`."
      }
    },
    "kind": "dev",
    "methods": {
      "approve(address,uint256)": {
        "details": "See {IERC721-approve}."
      },
      "approveByMember(address,uint256)": {
        "details": "Approves a transfer of the NFT from the owner's address to the given address.",
        "params": {
          "to": "The address to which the NFT is being transferred.",
          "tokenId": "The ID of the NFT."
        }
      },
      "balanceOf(address)": {
        "details": "See {IERC721-balanceOf}."
      },
      "burn(uint256)": {
        "details": "Burns the NFT with the given ID.",
        "params": {
          "tokenId": "The ID of the NFT to burn."
        }
      },
      "constructor": {
        "details": "Constructor that sets the owner, token name, and token symbol.",
        "params": {
          "_name": "The name of the token.",
          "_owner": "The address of the contract owner.",
          "_symbol": "The symbol of the token."
        }
      },
      "getApproved(uint256)": {
        "details": "See {IERC721-getApproved}."
      },
      "getNftIdByOwner(address)": {
        "details": "Returns the ID of the NFT owned by a given address.",
        "params": {
          "_address": "The address of the NFT owner."
        },
        "returns": {
          "_0": "The ID of the NFT owned by the given address."
        }
      },
      "isApprovedForAll(address,address)": {
        "details": "See {IERC721-isApprovedForAll}."
      },
      "name()": {
        "details": "Returns the name of the token.",
        "returns": {
          "_0": "A string representing the name of the token."
        }
      },
      "owner()": {
        "details": "Returns the address of the current owner."
      },
      "ownerOf(uint256)": {
        "details": "See {IERC721-ownerOf}."
      },
      "renounceOwnership()": {
        "details": "Leaves the contract without owner. It will not be possible to call `onlyOwner` functions anymore. Can only be called by the current owner. NOTE: Renouncing ownership will leave the contract without an owner, thereby removing any functionality that is only available to the owner."
      },
      "safeMint(address)": {
        "details": "Mints a new NFT and assigns ownership to the given address.",
        "params": {
          "_to": "The address that will receive the newly minted NFT."
        },
        "returns": {
          "_0": "The ID of the newly minted NFT."
        }
      },
      "supportsInterface(bytes4)": {
        "details": "See {IERC165-supportsInterface}."
      },
      "symbol()": {
        "details": "Returns the symbol of the token.",
        "returns": {
          "_0": "A string representing the symbol of the token."
        }
      },
      "tokenURI(uint256)": {
        "details": "See {IERC721Metadata-tokenURI}."
      },
      "transferFrom(address,address,uint256)": {
        "details": "Disables the transfer functions in this contract. Overrides the transfer functions in ERC721 to revert when called."
      },
      "transferOwnership(address)": {
        "details": "Transfers ownership of the contract to a new account (`newOwner`). Can only be called by the current owner."
      }
    },
    "title": "NewToken.sol",
    "version": 1
  },
  "userdoc": {
    "kind": "user",
    "methods": {},
    "notice": "NewTokencontract allows the owner to mint new NFTs and burn existing ones by approval. (case of remove a member from DAO).  Transfers and approval functions are disabled. The contract owner can also retrieve the ID of an NFT owned by a specific address.",
    "version": 1
  }
}