{
  "contractName": "NewVoting",
  "abi": [
    {
      "inputs": [
        {
          "internalType": "address",
          "name": "_owner",
          "type": "address"
        },
        {
          "internalType": "address",
          "name": "nftContractAddress_",
          "type": "address"
        }
      ],
      "stateMutability": "nonpayable",
      "type": "constructor"
    },
    {
      "anonymous": false,
      "inputs": [
        {
          "indexed": true,
          "internalType": "address",
          "name": "previousOwner",
          "type": "address"
        },
        {
          "indexed": true,
          "internalType": "address",
          "name": "newOwner",
          "type": "address"
        }
      ],
      "name": "OwnershipTransferred",
      "type": "event"
    },
    {
      "anonymous": false,
      "inputs": [
        {
          "indexed": false,
          "internalType": "string",
          "name": "predeterminedProposal",
          "type": "string"
        }
      ],
      "name": "PredeterminedProposalSet",
      "type": "event"
    },
    {
      "anonymous": false,
      "inputs": [
        {
          "indexed": false,
          "internalType": "bool",
          "name": "proposalResult",
          "type": "bool"
        }
      ],
      "name": "ProposalResult",
      "type": "event"
    },
    {
      "anonymous": false,
      "inputs": [
        {
          "indexed": false,
          "internalType": "uint32",
          "name": "members",
          "type": "uint32"
        },
        {
          "indexed": false,
          "internalType": "uint32",
          "name": "quorum",
          "type": "uint32"
        },
        {
          "indexed": false,
          "internalType": "uint32",
          "name": "minParticipation",
          "type": "uint32"
        }
      ],
      "name": "VoteSettingsSet",
      "type": "event"
    },
    {
      "anonymous": false,
      "inputs": [
        {
          "indexed": false,
          "internalType": "address",
          "name": "_voter",
          "type": "address"
        },
        {
          "indexed": false,
          "internalType": "bool",
          "name": "_voteYes",
          "type": "bool"
        },
        {
          "indexed": false,
          "internalType": "bool",
          "name": "hasVoted",
          "type": "bool"
        }
      ],
      "name": "Voted",
      "type": "event"
    },
    {
      "anonymous": false,
      "inputs": [
        {
          "indexed": false,
          "internalType": "enum NewVoting.WorkflowStatus",
          "name": "previousStatus",
          "type": "uint8"
        },
        {
          "indexed": false,
          "internalType": "enum NewVoting.WorkflowStatus",
          "name": "newStatus",
          "type": "uint8"
        }
      ],
      "name": "WorkflowStatusChange",
      "type": "event"
    },
    {
      "inputs": [],
      "name": "members",
      "outputs": [
        {
          "internalType": "uint32",
          "name": "",
          "type": "uint32"
        }
      ],
      "stateMutability": "view",
      "type": "function",
      "constant": true
    },
    {
      "inputs": [],
      "name": "minParticipation",
      "outputs": [
        {
          "internalType": "uint32",
          "name": "",
          "type": "uint32"
        }
      ],
      "stateMutability": "view",
      "type": "function",
      "constant": true
    },
    {
      "inputs": [],
      "name": "owner",
      "outputs": [
        {
          "internalType": "address",
          "name": "",
          "type": "address"
        }
      ],
      "stateMutability": "view",
      "type": "function",
      "constant": true
    },
    {
      "inputs": [],
      "name": "predeterminedProposal",
      "outputs": [
        {
          "internalType": "string",
          "name": "",
          "type": "string"
        }
      ],
      "stateMutability": "view",
      "type": "function",
      "constant": true
    },
    {
      "inputs": [],
      "name": "quorum",
      "outputs": [
        {
          "internalType": "uint32",
          "name": "",
          "type": "uint32"
        }
      ],
      "stateMutability": "view",
      "type": "function",
      "constant": true
    },
    {
      "inputs": [],
      "name": "renounceOwnership",
      "outputs": [],
      "stateMutability": "nonpayable",
      "type": "function"
    },
    {
      "inputs": [],
      "name": "totalVoters",
      "outputs": [
        {
          "internalType": "uint32",
          "name": "",
          "type": "uint32"
        }
      ],
      "stateMutability": "view",
      "type": "function",
      "constant": true
    },
    {
      "inputs": [
        {
          "internalType": "address",
          "name": "newOwner",
          "type": "address"
        }
      ],
      "name": "transferOwnership",
      "outputs": [],
      "stateMutability": "nonpayable",
      "type": "function"
    },
    {
      "inputs": [],
      "name": "voteCount",
      "outputs": [
        {
          "internalType": "uint32",
          "name": "yes",
          "type": "uint32"
        },
        {
          "internalType": "uint32",
          "name": "no",
          "type": "uint32"
        }
      ],
      "stateMutability": "view",
      "type": "function",
      "constant": true
    },
    {
      "inputs": [
        {
          "internalType": "address",
          "name": "",
          "type": "address"
        }
      ],
      "name": "voters",
      "outputs": [
        {
          "internalType": "bool",
          "name": "hasVoted",
          "type": "bool"
        },
        {
          "internalType": "bool",
          "name": "vote",
          "type": "bool"
        }
      ],
      "stateMutability": "view",
      "type": "function",
      "constant": true
    },
    {
      "inputs": [],
      "name": "workflowStatus",
      "outputs": [
        {
          "internalType": "enum NewVoting.WorkflowStatus",
          "name": "",
          "type": "uint8"
        }
      ],
      "stateMutability": "view",
      "type": "function",
      "constant": true
    },
    {
      "inputs": [
        {
          "internalType": "uint32",
          "name": "_members",
          "type": "uint32"
        },
        {
          "internalType": "uint32",
          "name": "_quorum",
          "type": "uint32"
        },
        {
          "internalType": "uint32",
          "name": "_minParticipation",
          "type": "uint32"
        }
      ],
      "name": "setVote",
      "outputs": [],
      "stateMutability": "nonpayable",
      "type": "function"
    },
    {
      "inputs": [
        {
          "internalType": "string",
          "name": "_proposal",
          "type": "string"
        }
      ],
      "name": "setPredeterminedProposal",
      "outputs": [],
      "stateMutability": "nonpayable",
      "type": "function"
    },
    {
      "inputs": [
        {
          "internalType": "address",
          "name": "_addr",
          "type": "address"
        }
      ],
      "name": "getVoter",
      "outputs": [
        {
          "components": [
            {
              "internalType": "bool",
              "name": "hasVoted",
              "type": "bool"
            },
            {
              "internalType": "bool",
              "name": "vote",
              "type": "bool"
            }
          ],
          "internalType": "struct NewVoting.Voter",
          "name": "",
          "type": "tuple"
        }
      ],
      "stateMutability": "view",
      "type": "function",
      "constant": true
    },
    {
      "inputs": [],
      "name": "isProposalAccepted",
      "outputs": [
        {
          "internalType": "bool",
          "name": "",
          "type": "bool"
        }
      ],
      "stateMutability": "nonpayable",
      "type": "function"
    },
    {
      "inputs": [
        {
          "internalType": "bool",
          "name": "_voteYes",
          "type": "bool"
        }
      ],
      "name": "voteForProposal",
      "outputs": [],
      "stateMutability": "nonpayable",
      "type": "function"
    },
    {
      "inputs": [],
      "name": "getPredeterminedProposal",
      "outputs": [
        {
          "internalType": "string",
          "name": "",
          "type": "string"
        }
      ],
      "stateMutability": "view",
      "type": "function",
      "constant": true
    },
    {
      "inputs": [],
      "name": "getWorkflowStatus",
      "outputs": [
        {
          "internalType": "enum NewVoting.WorkflowStatus",
          "name": "",
          "type": "uint8"
        }
      ],
      "stateMutability": "view",
      "type": "function",
      "constant": true
    },
    {
      "inputs": [],
      "name": "getResult",
      "outputs": [
        {
          "internalType": "bool",
          "name": "",
          "type": "bool"
        }
      ],
      "stateMutability": "view",
      "type": "function",
      "constant": true
    },
    {
      "inputs": [],
      "name": "checkRules",
      "outputs": [
        {
          "internalType": "bool",
          "name": "",
          "type": "bool"
        }
      ],
      "stateMutability": "view",
      "type": "function",
      "constant": true
    },
    {
      "inputs": [],
      "name": "startVotingSession",
      "outputs": [],
      "stateMutability": "nonpayable",
      "type": "function"
    },
    {
      "inputs": [],
      "name": "endVotingSession",
      "outputs": [],
      "stateMutability": "nonpayable",
      "type": "function"
    }
  ],
  "bytecode": "0x60806040523480156200001157600080fd5b5060405162001b5038038062001b508339810160408190526200003491620001c5565b6200003f3362000077565b6200004a82620000c7565b600380546001600160a01b0390921661010002610100600160a81b031990921691909117905550620001fd565b600080546001600160a01b038381166001600160a01b0319831681178455604051919092169283917f8be0079c531659141344cd1fd0a4f28419497f9722a3daafe3b4186f6b6457e09190a35050565b620000d16200014a565b6001600160a01b0381166200013c5760405162461bcd60e51b815260206004820152602660248201527f4f776e61626c653a206e6577206f776e657220697320746865207a65726f206160448201526564647265737360d01b60648201526084015b60405180910390fd5b620001478162000077565b50565b6000546001600160a01b03163314620001a65760405162461bcd60e51b815260206004820181905260248201527f4f776e61626c653a2063616c6c6572206973206e6f7420746865206f776e6572604482015260640162000133565b565b80516001600160a01b0381168114620001c057600080fd5b919050565b60008060408385031215620001d957600080fd5b620001e483620001a8565b9150620001f460208401620001a8565b90509250929050565b611943806200020d6000396000f3fe608060405234801561001057600080fd5b50600436106101425760003560e01c8063a4de1ec0116100b8578063c63840711161007c578063c6384071146102b0578063d4f50f98146102e8578063de2927891461031a578063ee74c67814610322578063f2fde38b1461032a578063f75d64a61461033d57600080fd5b8063a4de1ec01461026e578063a75de45214610281578063a7bfab1614610289578063bdd4d18d14610291578063c110970f146102a857600080fd5b8063715018a61161010a578063715018a6146101c957806385c2d29b146101d15780638da5cb5b146101e9578063912c9617146101fe578063a1edffa214610211578063a3ec138d1461022b57600080fd5b8063054fd2c2146101475780631703a018146101715780632259e3c3146101885780633089754b1461019d5780635f5300ff146101b2575b600080fd5b6001546101579063ffffffff1681565b60405163ffffffff90911681526020015b60405180910390f35b60005461015790600160e01b900463ffffffff1681565b61019b610196366004611338565b610345565b005b6101a561060b565b6040516101689190611361565b60005461015790600160a01b900463ffffffff1681565b61019b610756565b6101d961076a565b6040519015158152602001610168565b6101f161098e565b60405161016891906113af565b61019b61020c3660046113d7565b61099d565b60065461021e9060ff1681565b6040516101689190611452565b610257610239366004611466565b60046020526000908152604090205460ff8082169161010090041682565b604080519215158352901515602083015201610168565b61019b61027c3660046114a5565b610b7b565b6101a5610c42565b61019b610cd0565b60005461015790600160c01b900463ffffffff1681565b6101d9610d5a565b6005546102cb9063ffffffff80821691600160201b90041682565b6040805163ffffffff938416815292909116602083015201610168565b6102fb6102f6366004611466565b610f1b565b6040805182511515815260209283015115159281019290925201610168565b6101d9610f79565b61019b6110cc565b61019b610338366004611466565b61114c565b61021e6111c5565b6003546040516370a0823160e01b815260009161010090046001600160a01b0316906370a082319061037b9033906004016113af565b602060405180830381865afa158015610398573d6000803e3d6000fd5b505050506040513d601f19601f820116820180604052508101906103bc9190611556565b11806103e057506103cb61098e565b6001600160a01b0316336001600160a01b0316145b6104055760405162461bcd60e51b81526004016103fc9061156f565b60405180910390fd5b600160065460ff16600281111561041e5761041e61141a565b146104755760405162461bcd60e51b815260206004820152602160248201527f566f74696e672073657373696f6e20686176656e7420737461727465642079656044820152601d60fa1b60648201526084016103fc565b3360009081526004602052604090205460ff1615156001036104d25760405162461bcd60e51b8152602060048201526016602482015275165bdd481a185d9948185b1c9958591e481d9bdd195960521b60448201526064016103fc565b3360009081526004602052604081208054600161ffff1990911661010085151502171790558054600160a01b900463ffffffff16906014610512836115d2565b91906101000a81548163ffffffff021916908363ffffffff160217905550508015610571576005805463ffffffff1690600061054d836115d2565b91906101000a81548163ffffffff021916908363ffffffff160217905550506105ae565b60058054600160201b900463ffffffff1690600461058e836115d2565b91906101000a81548163ffffffff021916908363ffffffff160217905550505b336000818152600460209081526040918290205482519384528415159184019190915260ff161515908201527f3dfd7809ab9d7fa429069bc25e3408257cb102b4630fc175ec3cc45c68e2eccf906060015b60405180910390a150565b6003546040516370a0823160e01b81526060916000916101009091046001600160a01b0316906370a08231906106459033906004016113af565b602060405180830381865afa158015610662573d6000803e3d6000fd5b505050506040513d601f19601f820116820180604052508101906106869190611556565b11806106aa575061069561098e565b6001600160a01b0316336001600160a01b0316145b6106c65760405162461bcd60e51b81526004016103fc9061156f565b600280546106d3906115f5565b80601f01602080910402602001604051908101604052809291908181526020018280546106ff906115f5565b801561074c5780601f106107215761010080835404028352916020019161074c565b820191906000526020600020905b81548152906001019060200180831161072f57829003601f168201915b5050505050905090565b61075e611289565b61076860006112e8565b565b6000610774611289565b600260065460ff16600281111561078d5761078d61141a565b146107aa5760405162461bcd60e51b81526004016103fc9061162f565b600080546064906107d19063ffffffff600160e01b8204811691600160c01b900416611666565b6107db919061168e565b6001546000805463ffffffff938416945090926064926108079290821691600160c01b90910416611666565b610811919061168e565b60005463ffffffff9182169250600160a01b900416811161092e576005546001600160801b038316906108539063ffffffff600160201b8204811691166116bf565b63ffffffff161061092e5760055463ffffffff600160201b82048116911611156108d5576003805460ff191660019081179091556040519081527f315f04420685c0bd611557283ec2627b1a6d122740c2d8c773f18b02e7c8e2679060200160405180910390a150506003805460ff60a81b1916600160a81b17905550600190565b6003805460ff19169055604051600081527f315f04420685c0bd611557283ec2627b1a6d122740c2d8c773f18b02e7c8e2679060200160405180910390a150506003805460ff60a81b1916600160a81b17905550600090565b60405162461bcd60e51b815260206004820152602f60248201527f4d696e696d756d2070617274696369706174696f6e20616e642f6f722071756f60448201526e1c9d5b481b9bdd081c995858da1959608a1b60648201526084016103fc565b6000546001600160a01b031690565b6109a5611289565b600060065460ff1660028111156109be576109be61141a565b146109db5760405162461bcd60e51b81526004016103fc906116e3565b60008263ffffffff161180156109f8575060648263ffffffff1611155b610a585760405162461bcd60e51b815260206004820152602b60248201527f51756f72756d2070657263656e74616765206d7573742062652062657477656560448201526a06e203120616e64203130360ac1b60648201526084016103fc565b60008163ffffffff16118015610a75575060648163ffffffff1611155b610ae75760405162461bcd60e51b815260206004820152603a60248201527f4d696e696d756d2070617274696369706174696f6e2070657263656e7461676560448201527f206d757374206265206265747765656e203120616e642031303000000000000060648201526084016103fc565b600080546001600160c01b0316600160c01b63ffffffff8681169182026001600160e01b031692909217600160e01b868416908102919091179093556001805463ffffffff19169285169283179055604080519182526020820193909352918201527fa98a773f640947036947f832800e5a0e77d99e94352558425427e77a32282e839060600160405180910390a1505050565b610b83611289565b600060065460ff166002811115610b9c57610b9c61141a565b14610bb95760405162461bcd60e51b81526004016103fc906116e3565b6000815111610c055760405162461bcd60e51b815260206004820152601860248201527750726f706f73616c2063616e6e6f7420626520656d70747960401b60448201526064016103fc565b6002610c118282611779565b507f40bc40a1960cad6361a22c17c3e7c998a6d189b4adad1d6e630ec3ed73a700ed60026040516106009190611839565b60028054610c4f906115f5565b80601f0160208091040260200160405190810160405280929190818152602001828054610c7b906115f5565b8015610cc85780601f10610c9d57610100808354040283529160200191610cc8565b820191906000526020600020905b815481529060010190602001808311610cab57829003601f168201915b505050505081565b610cd8611289565b600160065460ff166002811115610cf157610cf161141a565b14610d0e5760405162461bcd60e51b81526004016103fc906118c4565b6006805460ff191660029081179091556040517f0a97a4ee45751e2abf3e4fc8946939630b11b371ea8ae39ccdc3056e98f5cc3f91610d5091600191906118f2565b60405180910390a1565b6003546040516370a0823160e01b815260009182916101009091046001600160a01b0316906370a0823190610d939033906004016113af565b602060405180830381865afa158015610db0573d6000803e3d6000fd5b505050506040513d601f19601f82011682018060405250810190610dd49190611556565b1180610df85750610de361098e565b6001600160a01b0316336001600160a01b0316145b610e145760405162461bcd60e51b81526004016103fc9061156f565b600260065460ff166002811115610e2d57610e2d61141a565b14610e4a5760405162461bcd60e51b81526004016103fc9061162f565b60008054606490610e719063ffffffff600160e01b8204811691600160c01b900416611666565b610e7b919061168e565b6001546000805463ffffffff93841694509092606492610ea79290821691600160c01b90910416611666565b610eb1919061168e565b60005463ffffffff9182169250600160a01b900416811115610ed65760009250505090565b6005546001600160801b03831690610efd9063ffffffff600160201b8204811691166116bf565b63ffffffff161015610f125760009250505090565b60019250505090565b6040805180820190915260008082526020820152610f37611289565b506001600160a01b03811660009081526004602090815260409182902082518084019093525460ff80821615158452610100909104161515908201525b919050565b6003546040516370a0823160e01b815260009182916101009091046001600160a01b0316906370a0823190610fb29033906004016113af565b602060405180830381865afa158015610fcf573d6000803e3d6000fd5b505050506040513d601f19601f82011682018060405250810190610ff39190611556565b1180611017575061100261098e565b6001600160a01b0316336001600160a01b0316145b6110335760405162461bcd60e51b81526004016103fc9061156f565b600260065460ff16600281111561104c5761104c61141a565b146110695760405162461bcd60e51b81526004016103fc9061162f565b600354600160a81b900460ff166110c25760405162461bcd60e51b815260206004820152601f60248201527f526573756c7420686173206e6f74206265656e20636865636b6564207965740060448201526064016103fc565b5060035460ff1690565b6110d4611289565b600060065460ff1660028111156110ed576110ed61141a565b1461110a5760405162461bcd60e51b81526004016103fc906118c4565b6006805460ff191660019081179091556040517f0a97a4ee45751e2abf3e4fc8946939630b11b371ea8ae39ccdc3056e98f5cc3f91610d5091600091906118f2565b611154611289565b6001600160a01b0381166111b95760405162461bcd60e51b815260206004820152602660248201527f4f776e61626c653a206e6577206f776e657220697320746865207a65726f206160448201526564647265737360d01b60648201526084016103fc565b6111c2816112e8565b50565b6003546040516370a0823160e01b815260009182916101009091046001600160a01b0316906370a08231906111fe9033906004016113af565b602060405180830381865afa15801561121b573d6000803e3d6000fd5b505050506040513d601f19601f8201168201806040525081019061123f9190611556565b1180611263575061124e61098e565b6001600160a01b0316336001600160a01b0316145b61127f5760405162461bcd60e51b81526004016103fc9061156f565b5060065460ff1690565b3361129261098e565b6001600160a01b0316146107685760405162461bcd60e51b815260206004820181905260248201527f4f776e61626c653a2063616c6c6572206973206e6f7420746865206f776e657260448201526064016103fc565b600080546001600160a01b038381166001600160a01b0319831681178455604051919092169283917f8be0079c531659141344cd1fd0a4f28419497f9722a3daafe3b4186f6b6457e09190a35050565b60006020828403121561134a57600080fd5b8135801515811461135a57600080fd5b9392505050565b600060208083528351808285015260005b8181101561138e57858101830151858201604001528201611372565b506000604082860101526040601f19601f8301168501019250505092915050565b6001600160a01b0391909116815260200190565b803563ffffffff81168114610f7457600080fd5b6000806000606084860312156113ec57600080fd5b6113f5846113c3565b9250611403602085016113c3565b9150611411604085016113c3565b90509250925092565b634e487b7160e01b600052602160045260246000fd5b6003811061144e57634e487b7160e01b600052602160045260246000fd5b9052565b602081016114608284611430565b92915050565b60006020828403121561147857600080fd5b81356001600160a01b038116811461135a57600080fd5b634e487b7160e01b600052604160045260246000fd5b6000602082840312156114b757600080fd5b813567ffffffffffffffff808211156114cf57600080fd5b818401915084601f8301126114e357600080fd5b8135818111156114f5576114f561148f565b604051601f8201601f19908116603f0116810190838211818310171561151d5761151d61148f565b8160405282815287602084870101111561153657600080fd5b826020860160208301376000928101602001929092525095945050505050565b60006020828403121561156857600080fd5b5051919050565b6020808252602d908201527f596f75206861766520746f20686f6c6420612044616f204e465420746f20626560408201526c2061626c6520746f20766f746560981b606082015260800190565b634e487b7160e01b600052601160045260246000fd5b600063ffffffff8083168181036115eb576115eb6115bc565b6001019392505050565b600181811c9082168061160957607f821691505b60208210810361162957634e487b7160e01b600052602260045260246000fd5b50919050565b6020808252601f908201527f566f74696e672073657373696f6e206973206e6f7420656e6465642079657400604082015260600190565b63ffffffff818116838216028082169190828114611686576116866115bc565b505092915050565b600063ffffffff808416806116b357634e487b7160e01b600052601260045260246000fd5b92169190910492915050565b63ffffffff8181168382160190808211156116dc576116dc6115bc565b5092915050565b60208082526027908201527f54686520776f726b666c6f7720737461747573206d7573742062652050726f706040820152661bdcd85b14d95d60ca1b606082015260800190565b601f82111561177457600081815260208120601f850160051c810160208610156117515750805b601f850160051c820191505b818110156117705782815560010161175d565b5050505b505050565b815167ffffffffffffffff8111156117935761179361148f565b6117a7816117a184546115f5565b8461172a565b602080601f8311600181146117dc57600084156117c45750858301515b600019600386901b1c1916600185901b178555611770565b600085815260208120601f198616915b8281101561180b578886015182559484019460019091019084016117ec565b50858210156118295787850151600019600388901b60f8161c191681555b5050505050600190811b01905550565b600060208083526000845461184d816115f5565b8084870152604060018084166000811461186e5760018114611888576118b6565b60ff1985168984015283151560051b8901830195506118b6565b896000528660002060005b858110156118ae5781548b8201860152908301908801611893565b8a0184019650505b509398975050505050505050565b60208082526014908201527357726f6e6720576f726b666c6f7753746174757360601b604082015260600190565b604081016119008285611430565b61135a602083018461143056fea2646970667358221220b084eaacf7bad783244cf5c1c1bce39d0919eb3cccd7091e20b0516db6f37b4964736f6c63430008120033",
  "immutableReferences": {},
  "source": "// SPDX-License-Identifier: MIT\n\npragma solidity 0.8.18;\n\n//import \"https://github.com/OpenZeppelin/openzeppelin-contracts/blob/master/contracts/access/Ownable.sol\";\nimport \"../node_modules/@openzeppelin/contracts/access/Ownable.sol\";\n//import \"https://github.com/OpenZeppelin/openzeppelin-contracts/blob/master/contracts/token/ERC721/ERC721.sol\";\nimport \"../node_modules/@openzeppelin/contracts/token/ERC721/ERC721.sol\";\nimport \"./NewToken.sol\";\n\n/**\n * @title NewVoting.sol\n *\n * @author Xavier BARADA / github: https://github.com/XaViPanDx\n *\n * @notice NewVoting contract allows DAO members to vote on a predetermined proposal.\n * The contract verifies if the minimum participation and quorum rules are met before\n * returning the result. Also, only voters which hold the DAO toekn can participate\n * to the vote session.\n *\n * For more transparency in this DAO, all data is public. \n */\ncontract NewVoting is Ownable {\n\n    /*\n     * @dev Voting public storage:\n     * \n     * -> Total number of voters.\n     * -> The number of members in the DAO.\n     * -> The percentage of members required to reach a quorum.\n     * -> The minimum percentage of members required to participate in the vote.\n     * -> The predetermined proposal to vote on.\n     * -> The result of the vote.\n     * -> The address of the NFT contract.\n     * -> Admin check results before voters can do it.\n     */\n    uint32 public totalVoters;\n    uint32 public members;\n    uint32 public quorum;\n    uint32 public minParticipation;\n    string public predeterminedProposal;\n    bool private proposalResult;\n    address private _nftContractAddress;\n    bool private resultChecked;\n\n    \n    /**\n     * @dev The struct representing a voter, indicating whether they have \n     * voted and how they voted.\n     */\n    struct Voter {\n        bool hasVoted;\n        bool vote;\n    }\n\n    /**\n     * @dev The public mapping of voters and their votes.\n     */\n    mapping(address => Voter) public voters;\n\n    /**\n     * @dev The struct representing the vote count, indicating the number \n     * of votes for and against the proposal.\n     */\n    struct VoteCount {\n        uint32 yes;\n        uint32 no;\n    }\n\n    /**\n     * @dev The vote count of the predetermined proposal.\n     */\n    VoteCount public voteCount;\n\n    /**\n     * @dev The possible statuses of the voting process.\n     * ProposalSet: The proposal has been set.\n     * VotingSessionStarted: The voting session has started.\n     * VotingSessionEnded: The voting session has ended.\n     */\n    enum WorkflowStatus {\n        ProposalSet,\n        VotingSessionStarted,\n        VotingSessionEnded     \n    }\n\n    /**\n     * @dev The current status of the voting process.\n     */\n    WorkflowStatus public workflowStatus;\n\n    /**\n     * @dev Event emitted when a voter casts their vote.\n     * @param _voter The address of the voter.\n     * @param _voteYes Whether the voter voted in favor of the proposal.\n     * @param hasVoted Whether the voter has already voted.\n     */\n    event Voted(address _voter, bool _voteYes, bool hasVoted);\n\n     /**\n     * @dev Event emitted when the workflow status changes.\n     * @param previousStatus The previous status of the voting process.\n     * @param newStatus The new status of the voting process.\n     */\n    event WorkflowStatusChange(WorkflowStatus previousStatus, WorkflowStatus newStatus);\n\n    /**\n     * @dev Event emitted when the predetermined proposal is set by owner.\n     * @param predeterminedProposal The predetermined proposal that DAO members will vote on.\n     */\n    event PredeterminedProposalSet(string predeterminedProposal);\n\n    /**\n     * @dev Event emitted when the vote is set by owner (members, quorum and minParticipation).\n     */\n    event VoteSettingsSet(uint32 members, uint32 quorum, uint32 minParticipation);\n\n\n    /*\n     * @dev Event emitted when the proposal result is determined.\n     */\n    event ProposalResult(bool proposalResult);\n\n    /*\n     * @dev Constructor that sets the owner and the address of the NFT contract.\n     * @param _owner The address of the contract owner.\n     * @param nftContractAddress_ The address of the NFT contract.\n     */\n    constructor(address _owner, address nftContractAddress_) {\n        transferOwnership(_owner);\n        _nftContractAddress = nftContractAddress_;\n    }\n\n    /*\n     * @dev A modifier to restrict voting to NFT holders and the contract owner.\n     */\n    modifier onlyVoters() {\n        require(IERC721(_nftContractAddress).balanceOf(msg.sender) > 0 || msg.sender == owner(), \"You have to hold a Dao NFT to be able to vote\");\n        _;\n    } \n\n    /**\n     * @dev Sets the number of DAO members at the time of the vote, quorum percentage, and minimum \n     * participation percentage required for this vote.\n     * @param _members The number of DAO members.\n     * @param _quorum The percentage of votes required for a quorum.\n     * @param _minParticipation The minimum percentage of DAO NFT holders required to vote.\n     */\n    function setVote(uint32 _members, uint32 _quorum, uint32 _minParticipation) external onlyOwner {\n        require(workflowStatus == WorkflowStatus.ProposalSet, \"The workflow status must be ProposalSet\");\n        require(_quorum > 0 && _quorum <= 100, \"Quorum percentage must be between 1 and 100\");\n        require(_minParticipation > 0 && _minParticipation <= 100, \"Minimum participation percentage must be between 1 and 100\");\n        members = _members;\n        quorum = _quorum;\n        minParticipation = _minParticipation;\n        emit VoteSettingsSet(_members, _quorum, _minParticipation);    \n    }\n\n    /*\n     * @dev Owner set a predetermined proposal to be voted on (proposal chosen by members with snapshot).\n     * @param _proposal The predetermined proposal to be voted on.\n     */\n    function setPredeterminedProposal(string memory _proposal) external onlyOwner {\n        require(workflowStatus == WorkflowStatus.ProposalSet, \"The workflow status must be ProposalSet\");\n        require(bytes(_proposal).length > 0, \"Proposal cannot be empty\");\n        predeterminedProposal = _proposal;\n        emit PredeterminedProposalSet(predeterminedProposal);\n    }\n\n    /*\n     * @dev Returns the voter data for a given address.\n     * @param _addr The address to retrieve voter data for.\n     * @return The voter data for the specified address.\n     */\n    function getVoter(address _addr) external view onlyOwner returns (Voter memory) {\n        return voters[_addr];\n    }\n    \n    /*\n     * @dev Determines whether the predetermined proposal has been accepted based on the voting results.\n     * OnlyOwner function for emit evnts just once.\n     * @return A boolean indicating whether the proposal was accepted.\n     */\n    function isProposalAccepted() external onlyOwner returns (bool) {\n        require(workflowStatus == WorkflowStatus.VotingSessionEnded, \"Voting session is not ended yet\"); \n        uint128 quorumVotes = (members * quorum) / 100;\n        uint128 minParticipationVotes = (members * minParticipation) / 100;\n\n        if (totalVoters >= minParticipationVotes) {  \n            if (voteCount.yes + voteCount.no >= quorumVotes) { \n\n                if (voteCount.yes > voteCount.no) {\n                    proposalResult = true;\n                    emit ProposalResult(true);\n                    resultChecked = true;\n                    return true ;\n                    \n                } else {\n                    proposalResult = false;\n                    emit ProposalResult(false);\n                    resultChecked = true;\n                    return false;\n                }\n            }\n        }\n\n        revert(\"Minimum participation and/or quorum not reached\");           \n    }\n\n    /*\n     * @dev Allows a voter to vote for or against the predetermined proposal (selected by snapshot).\n     * @param _voteYes A boolean indicating whether the voter is voting for the proposal (true) or against it (false).\n     */\n    function voteForProposal(bool _voteYes) external onlyVoters {\n        require(workflowStatus == WorkflowStatus.VotingSessionStarted, \"Voting session havent started yet\");\n        require(voters[msg.sender].hasVoted != true, 'You have already voted');\n        voters[msg.sender].hasVoted = true;\n        voters[msg.sender].vote = _voteYes;\n        totalVoters++;\n\n        if (_voteYes) {\n            voteCount.yes++;\n\n        } else {\n            voteCount.no++;\n            }\n\n        emit Voted(msg.sender, _voteYes, voters[msg.sender].hasVoted);\n    }\n\n    /*\n     * @dev Returns the predetermined proposal.\n     * @return A string representing the predetermined proposal.\n     */\n    function getPredeterminedProposal() external view onlyVoters returns(string memory) {\n        return predeterminedProposal;\n    }\n\n    /*\n     * @dev Returns the current workflow status.\n     * @return The current workflow status.\n     */\n    function getWorkflowStatus() external view onlyVoters returns (WorkflowStatus) {\n        return workflowStatus;\n    }\n\n    /**\n     * @dev Determines whether the predetermined proposal has been accepted based on the voting results.\n     * This function returns the result of the proposal as determined by the voting process for\n     * the voters.\n     */\n    function getResult() external view onlyVoters returns(bool) {\n        require(workflowStatus == WorkflowStatus.VotingSessionEnded, \"Voting session is not ended yet\"); \n        require(resultChecked, \"Result has not been checked yet\");\n        return proposalResult;\n    }\n\n    /**\n     * @dev Check if the minimum participation and quorum rules are met. \n     * @return A boolean indicating whether the rules are met.\n     */\n    function checkRules() external view onlyVoters returns (bool) {\n        require(workflowStatus == WorkflowStatus.VotingSessionEnded, \"Voting session is not ended yet\"); \n        uint128 quorumVotes = (members * quorum) / 100;\n        uint128 minParticipationVotes = (members * minParticipation) / 100;\n    \n        if (totalVoters < minParticipationVotes) {\n            return false;\n        }\n    \n        if (voteCount.yes + voteCount.no < quorumVotes) {\n            return false;\n        }\n    \n        return true;\n    }\n\n    /*\n     * @dev Owner starts the voting session.\n     */\n    function startVotingSession() external onlyOwner {\n        require(workflowStatus == WorkflowStatus.ProposalSet, \"Wrong WorkflowStatus\");\n        workflowStatus = WorkflowStatus.VotingSessionStarted;\n        emit WorkflowStatusChange(WorkflowStatus.ProposalSet, WorkflowStatus.VotingSessionStarted);\n    }\n\n    /*\n     * @dev Owner ends the voting session.\n     */\n    function endVotingSession() external onlyOwner {\n        require(workflowStatus == WorkflowStatus.VotingSessionStarted, \"Wrong WorkflowStatus\");\n        workflowStatus = WorkflowStatus.VotingSessionEnded;\n        emit WorkflowStatusChange(WorkflowStatus.VotingSessionStarted, WorkflowStatus.VotingSessionEnded);\n    }  \n}",
  "sourcePath": "/Users/xavydev/Documents/DAPP_ESS_SCIC2/truffle/contracts/NewVoting.sol",
  "compiler": {
    "name": "solc",
    "version": "0.8.18+commit.87f61d96.Emscripten.clang"
  },
  "schemaVersion": "3.4.11",
  "updatedAt": "2023-04-07T10:23:02.729Z",
  "networkType": "ethereum",
  "devdoc": {
    "author": "Xavier BARADA / github: https://github.com/XaViPanDx",
    "events": {
      "PredeterminedProposalSet(string)": {
        "details": "Event emitted when the predetermined proposal is set by owner.",
        "params": {
          "predeterminedProposal": "The predetermined proposal that DAO members will vote on."
        }
      },
      "VoteSettingsSet(uint32,uint32,uint32)": {
        "details": "Event emitted when the vote is set by owner (members, quorum and minParticipation)."
      },
      "Voted(address,bool,bool)": {
        "details": "Event emitted when a voter casts their vote.",
        "params": {
          "_voteYes": "Whether the voter voted in favor of the proposal.",
          "_voter": "The address of the voter.",
          "hasVoted": "Whether the voter has already voted."
        }
      },
      "WorkflowStatusChange(uint8,uint8)": {
        "details": "Event emitted when the workflow status changes.",
        "params": {
          "newStatus": "The new status of the voting process.",
          "previousStatus": "The previous status of the voting process."
        }
      }
    },
    "kind": "dev",
    "methods": {
      "checkRules()": {
        "details": "Check if the minimum participation and quorum rules are met. ",
        "returns": {
          "_0": "A boolean indicating whether the rules are met."
        }
      },
      "getResult()": {
        "details": "Determines whether the predetermined proposal has been accepted based on the voting results. This function returns the result of the proposal as determined by the voting process for the voters."
      },
      "owner()": {
        "details": "Returns the address of the current owner."
      },
      "renounceOwnership()": {
        "details": "Leaves the contract without owner. It will not be possible to call `onlyOwner` functions anymore. Can only be called by the current owner. NOTE: Renouncing ownership will leave the contract without an owner, thereby removing any functionality that is only available to the owner."
      },
      "setVote(uint32,uint32,uint32)": {
        "details": "Sets the number of DAO members at the time of the vote, quorum percentage, and minimum  participation percentage required for this vote.",
        "params": {
          "_members": "The number of DAO members.",
          "_minParticipation": "The minimum percentage of DAO NFT holders required to vote.",
          "_quorum": "The percentage of votes required for a quorum."
        }
      },
      "transferOwnership(address)": {
        "details": "Transfers ownership of the contract to a new account (`newOwner`). Can only be called by the current owner."
      }
    },
    "stateVariables": {
      "voteCount": {
        "details": "The vote count of the predetermined proposal."
      },
      "voters": {
        "details": "The public mapping of voters and their votes."
      },
      "workflowStatus": {
        "details": "The current status of the voting process."
      }
    },
    "title": "NewVoting.sol",
    "version": 1
  },
  "userdoc": {
    "kind": "user",
    "methods": {},
    "notice": "NewVoting contract allows DAO members to vote on a predetermined proposal. The contract verifies if the minimum participation and quorum rules are met before returning the result. Also, only voters which hold the DAO toekn can participate to the vote session. For more transparency in this DAO, all data is public. ",
    "version": 1
  }
}